S01D000050726F6A6563745F476C6964696E675F43687574652E73726563BB
S113000045C0000061C000005FC000005DC000008A
S11300105BC0000059C0000057C0000055C000007C
S113002053C0000051C000004FC000004DC000008C
S11300304BC0000049C0000047C00000A1C600003A
S113004043C0000041C000003FC000003DC00000AC
S11300503BC0000039C0000037C0000035C00000BC
S113006033C0000031C000002FC000002DC00000CC
S11300702BC0000029C0000027C0000025C00000DC
S113008023C0000021C000001FC0000011241FBEB7
S1130090CFEFD0E1DEBFCDBF11E0A0E0B1E0E2E6FA
S11300A0F9E100E00BBF02C007900D92A630B10742
S11300B0D9F721E0A6E0B1E001C01D92A730B20754
S11300C0E1F76DD60C94AF0C9BCF2F923F924F92D9
S11300D05F926F927F928F929F92AF92BF92CF92D4
S11300E0DF92EF92FF920F931F93CF93DF93CDB7DD
S11300F0DEB7CC56D1090FB6F894DEBF0FBECDBF24
S11301001C0121964CAF5DAF6EAF7FAF2197259652
S11301100CAF1DAF2EAF3FAF2597DC018D919D91A4
S11301200D90BC91A02D89879A87AB87BC87F1017C
S1130130448055806680778080859185A285B385CB
S11301408D839E83AF83B88784859585A685B7857F
S11301508D879E87AF87B88B29853A854B855C85CB
S1130160CA01B9010E94A00B65966CAF7DAF8EAF3A
S11301709FAF6597A301920169857A858B859C85DC
S11301800E94A00B69AB7AAB8BAB9CAB2D813E81FB
S11301904F81588569857A858B859C850E94A00B43
S11301A06DAB7EAB8FAB98AF2D853E854F8558895F
S11301B069857A858B859C850E94A00B69A77AA79F
S11301C08BA79CA7A3019201C301B2010E94A00BBB
S11301D029966CAF7DAF8EAF9FAF29972D813E815D
S11301E04F815885C301B2010E94A00B69AF7AAF59
S11301F08BAF9CAF2D853E854F855889C301B201D5
S11302000E94A00B2D966CAF7DAF8EAF9FAF2D9744
S11302102D813E814F815885CA01B9010E94A00BEE
S11302206DA77EA78FA798AB2D853E854F855889EE
S11302306D817E818F8198850E94A00B61966CAF41
S11302407DAF8EAF9FAF61972D853E854F855889D1
S1130250CA01B9010E94A00B6DA37EA38FA398A726
S1130260A5019401C501B4010E94A00B69837A839E
S11302708B839C83CF57DF4F288139814A815B81EF
S1130280C158D040CA01B9010E94A00B9B01AC0126
S113029069817A818B819C810E94ED0969837A83CB
S11302A08B839C83CB57DF4F288139814A815B81C3
S11302B0C558D040CA01B9010E94A00B9B01AC01F2
S11302C069817A818B819C810E94ED090E94070CCF
S11302D069837A838B839C8320E030E0A9010E94A8
S11302E0510A882309F427C529813A814B815C810D
S11302F060E070E080E89FE30E94550A69837A8396
S11303008B839C839B01AC01C501B4010E94A00BAB
S113031069966CAF7DAF8EAF9FAF699729813A81A3
S11303204B815C81CF57DF4F688179818A819B81C2
S1130330C158D0400E94A00B6D966CAF7DAF8EAFBC
S11303409FAF6D9729813A814B815C81CB57DF4FF9
S1130350688179818A819B81C558D0400E94A00B15
S1130360A1966CAF7DAF8EAF9FAFA197C757DF4FFC
S1130370288139814A815B81C958D040CA01B901B9
S11303800E94A00B4B015C01C357DF4F28813981C8
S11303904A815B81CD58D040CA01B9010E94A00BAB
S11303A09B01AC01C501B4010E94ED094B015C0144
S11303B0CF56DF4F288139814A815B81C159D040B2
S11303C0CA01B9010E94A00B9B01AC01C501B40193
S11303D00E94ED090E94070C4B015C0120E030E013
S11303E0A9010E94510A882309F4A5C4A501940116
S11303F060E070E080E89FE30E94550A4B015C01D5
S11304009B01AC01C757DF4F688179818A819B8149
S1130410C958D0400E94A00B6D8B7E8B8F8B988F18
S1130420A5019401C357DF4F688179818A819B813B
S1130430CD58D0400E94A00B698F7A8F8B8F9C8FF0
S1130440A5019401CF56DF4F688179818A819B8110
S1130450C159D0400E94A00B69837A838B839C830B
S11304602DA53EA54FA558A960E070E080E09FE36C
S1130470B3D72DA13EA14FA158A5AED7A5966CAF79
S11304807DAF8EAF9FAFA5979B01AC016D897E892F
S11304908F89988D0E94A00B4B015C0129A53AA578
S11304A04BA55CA569AD7AAD8BAD9CAD95D7A996EE
S11304B06CAF7DAF8EAF9FAFA9979B01AC01698DE7
S11304C07A8D8B8D9C8D0E94A00B9B01AC01C50184
S11304D0B40183D74B015C012D962CAD3DAD4EADDF
S11304E05FAD2D976DA97EA98FA998AD76D7AD96EE
S11304F06CAF7DAF8EAF9FAFAD979B01AC016981AF
S11305007A818B819C810E94A00B9B01AC01C50167
S1130510B40163D79B01AC0160D74B015C0129ADE9
S11305203AAD4BAD5CAD69A57AA58BA59CA555D715
S11305309B01AC016D897E898F89988D0E94A00BE7
S1130540698B7A8B8B8B9C8B29962CAD3DAD4EADF4
S11305505FAD299760E070E080E09FE33DD769A735
S11305607AA78BA79CA72DA13EA14FA158A534D74C
S11305709B01AC01698D7A8D8B8D9C8D0E94A00BA3
S11305809B01AC0169897A898B899C8926D7698BFF
S11305907A8B8B8B9C8B29A93AA94BA95CA9619670
S11305A06CAD7DAD8EAD9FAD619716D79B01AC014F
S11305B069817A818B819C810E94A00B9B01AC0193
S11305C069897A898B899C8908D79B01AC0105D7F5
S11305D0698B7A8B8B8B9C8BA5019401C501B4012B
S11305E00E94A00B4B015C0129893A894B895C89E3
S11305F0CA01B9010E94A00B9B01AC01C501B40161
S1130600ECD60E94070C6D8F7E8F8F8F98A32DA937
S11306103EA94FA958AD2D966CAD7DAD8EAD9FAD65
S11306202D97DAD6698B7A8B8B8B9C8B9B01AC01D3
S11306306D897E898F89988D0E94A00B4B015C0186
S113064061962CAD3DAD4EAD5FAD619769A97AA9B8
S11306508BA99CA9C2D669A37AA38BA39CA39B0153
S1130660AC01698D7A8D8B8D9C8D0E94A00B9B01B2
S1130670AC01C501B401B1D64B015C012DA53EA569
S11306804FA558A969A57AA58BA59CA5A5D669AB44
S11306907AAB8BAB9CAB9B01AC0169817A818B817A
S11306A09C810E94A00B9B01AC01C501B40195D6AD
S11306B09B01AC0192D66DAB7EAB8FAB98AF298911
S11306C03A894B895C89CA01B90187D669A77AA797
S11306D08BA79CA729A13AA14BA15CA1CA01B9018E
S11306E07CD669AF7AAF8BAF9CAF29962CAD3DAD6C
S11306F04EAD5FAD299765966CAD7DAD8EAD9FAD6A
S113070065976AD62DA53EA54FA558A965D69B0128
S1130710AC016DA17EA18FA198A55FD66DA77EA720
S11307208FA798AB2D8D3E8D4F8D58A1CA01B9016D
S113073054D64B015C019B01AC01A5966CAD7DAD1B
S11307408EAD9FADA597FCD76DA37EA38FA398A76D
S11307502DA93EA94FA958ADCA01B9013ED66D8F46
S11307607E8F8F8F98A39B01AC0169897A898B89CD
S11307709C89E6D79B01AC016DA17EA18FA198A5B0
S11307802CD6698B7A8B8B8B9C8BA5019401A996B3
S11307906CAD7DAD8EAD9FADA997D2D76DA37EA371
S11307A08FA398A72D8D3E8D4F8D58A169A17AA155
S11307B08BA19CA1C5D79B01AC016DA17EA18FA18A
S11307C098A50BD669A37AA38BA39CA3A501940136
S11307D0AD966CAD7DAD8EAD9FADAD97B1D74B01F0
S11307E05C012D8D3E8D4F8D58A169A97AA98BA9E5
S11307F09CA9A6D79B01AC01C501B401EED56D8FB0
S11308007E8F8F8F98A32DA53EA54FA558A96D96D1
S11308106CAD7DAD8EAD9FAD6D9792D74B015C01F4
S113082029AD3AAD4BAD5CADA1966CAD7DAD8EAD51
S11308309FADA19785D79B01AC01C501B401CCD56F
S11308404B015C012D8D3E8D4F8D58A1698D7A8DA4
S11308508B8D9C8D75D76DA37EA38FA398A729A19B
S11308603AA14BA15CA169817A818B819C8168D773
S11308709B01AC016DA17EA18FA198A5ADD59B0173
S1130880AC01C501B401A9D56DA37EA38FA398A71C
S113089029A53AA54BA55CA5A1966CAD7DAD8EAD01
S11308A09FADA1974DD74B015C012DA53EA54FA54A
S11308B058A969966CAD7DAD8EAD9FAD699740D753
S11308C09B01AC01C501B40187D54B015C012989A9
S11308D03A894B895C8969817A818B819C8130D783
S11308E069837A838B839C832D8D3E8D4F8D58A194
S11308F06D897E898F89988D23D79B01AC0169818D
S11309007A818B819C8168D59B01AC01C501B401BE
S113091064D56D8F7E8F8F8F98A329AD3AAD4BAD83
S11309205CAD69966CAD7DAD8EAD9FAD699708D712
S11309304B015C0129A53AA54BA55CA56D966CAD50
S11309407DAD8EAD9FAD6D97FBD69B01AC01C5010E
S1130950B40142D569837A838B839C8329A13AA10C
S11309604BA15CA16D897E898F89988DE9D64B0155
S11309705C0129893A894B895C89698D7A8D8B8DD3
S11309809C8DDED69B01AC01C501B40125D59B012C
S1130990AC0169817A818B819C811FD54B015C01FB
S11309A020E030E0A9016DA17EA18FA198A579D5A1
S11309B0882309F45EC020E030E0A9016D8D7E8DAE
S11309C08F8D98A16ED5882309F453C020E030E0C0
S11309D0A901C501B40165D5882309F44AC0209151
S11309E000013091010140910201509103016DA178
S11309F07EA18FA198A5A4D69B01AC0121966CADD4
S1130A007DAD8EAD9FAD2197E8D421966CAF7DAFBF
S1130A108EAF9FAF21972091000130910101409149
S1130A200201509103016D8D7E8D8F8D98A188D622
S1130A309B01AC0125966CAD7DAD8EAD9FAD259728
S1130A40CCD425966CAF7DAF8EAF9FAF2597209108
S1130A500001309101014091020150910301C5014F
S1130A60B4016ED69B01AC01C701B601B6D46B01CB
S1130A707C01A3019201505821966CAD7DAD8EADE1
S1130A809FAD21975DD64B015C012D813E814F8145
S1130A90588525966CAD7DAD8EAD9FAD259750D60E
S1130AA09B01AC01C501B40197D44B015C012D85B8
S1130AB03E854F855889C701B60142D69B01AC01DA
S1130AC0C501B40189D420E030E040E05CE338D6CD
S1130AD09B01AC0169857A858B859C857ED4698769
S1130AE07A878B879C879B01AC0121966CAD7DAD89
S1130AF08EAD9FAD219724D64B015C012D813E81A3
S1130B004F815885C701B6011BD69B01AC01C501B5
S1130B10B40163D44B015C012D853E854F85588912
S1130B2025966CAD7DAD8EAD9FAD259709D69B0105
S1130B30AC01C501B40150D420E030E040E05CE3F6
S1130B40FFD59B01AC01C301B20147D46D8B7E8BF1
S1130B508F8B988F29853A854B855C8525966CAD5E
S1130B607DAD8EAD9FAD2597EBD54B015C01A30107
S1130B709201C701B601E4D59B01AC01C501B401E2
S1130B802BD44B015C012D853E854F8558892196D8
S1130B906CAD7DAD8EAD9FAD2197D2D59B01AC01DF
S1130BA0C501B4011AD420E030E040E05CE3C8D5CC
S1130BB09B01AC016D817E818F8198850ED4698FF4
S1130BC07A8F8B8F9C8F29853A854B855C85C701ED
S1130BD0B601B6D56B017C01A301920125966CADDB
S1130BE07DAD8EAD9FAD2597ABD59B01AC01C70103
S1130BF0B601F3D36B017C012D813E814F81588571
S1130C0021966CAD7DAD8EAD9FAD219799D59B019D
S1130C10AC01C701B601E0D320E030E040E05CE382
S1130C208FD59B01AC016D857E858F859889D5D341
S1130C306D837E838F83988729853A854B855C8570
S1130C40CA01B9017DD54B015C012D893E894F89CB
S1130C50588DCA01B90174D59B01AC01C501B40119
S1130C60BCD34B015C01298D3A8D4B8D5C8DCA013F
S1130C70B90166D59B01AC01C501B401AED34B01EA
S1130C805C012D813E814F815885CA01B90158D537
S1130C909B01AC01C501B401A0D3B9D54B015C01E2
S1130CA020E030E0A901FDD3882309F444C0A50164
S1130CB0940160E070E080E89FE3F7D36D877E875E
S1130CC08F87988B9B01AC0169857A858B859C8580
S1130CD037D52B013C012D853E854F8558896D897B
S1130CE07E898F89988D2CD56B017C012D853E855D
S1130CF04F855889698D7A8D8B8D9C8D21D54B01BB
S1130D005C012D853E854F8558896D817E818F815B
S1130D10988516D5F1014082518262827382C48221
S1130D20D582E682F78280869186A286B38664871E
S1130D30758786879787C459DF4F0FB6F894DEBF4F
S1130D400FBECDBFDF91CF911F910F91FF90EF9018
S1130D50DF90CF90BF90AF909F908F907F906F90D7
S1130D605F904F903F902F90089588E083BF83EF6A
S1130D7081BF83B7856083BF87B7826087BF0895CB
S1130D801F920F920FB60F9211248F9381E08093DC
S1130D9006018F910F900FBE0F901F901895CF935F
S1130DA0DF93CDB7DEB7E6970FB6F894DEBF0FBE7C
S1130DB0CDBF80E090E0A0E8BFE38B8B9C8BAD8B34
S1130DC0BE8B1F8A188E198E1A8E1B8E1C8E1D8E3A
S1130DD01E8E1F8E18A219A21AA260E071EE80E086
S1130DE090E07DD2D0D272D111D2BFDF7894612C41
S1130DF0712C809106018823E1F3BE01695F7F4F66
S1130E00CE01019679D1CE010D961CD269817A81E9
S1130E10072E000C880B990BE3D323EC35EF4CE140
S1130E2051E48ED49B01AC01D8D220E030E040E004
S1130E3058E386D44B015C016B817C81072E000C46
S1130E40880B990BCDD323EC35EF4CE151E478D4E6
S1130E509B01AC01C2D220E030E040E058E370D402
S1130E60562E472E382E292E6D817E81072E000C9A
S1130E70880B990BB5D323EC35EF4CE151E460D4E6
S1130E809B01AC01AAD220E030E040E058E358D402
S1130E906BA77CA78DA79EA76F817885072E000C72
S1130EA0880B990B9DD320E030E04AEF5BE348D4F4
S1130EB025E33AEF4EE85CE343D46BA37CA38DA314
S1130EC09EA369857A85072E000C880B990B88D31D
S1130ED020E030E04AEF5BE333D425E33AEF4EE819
S1130EE05CE32ED46FA378A789A79AA76B857C852A
S1130EF0072E000C880B990B73D320E030E04AEFE7
S1130F005BE31ED425E33AEF4EE85CE319D46B01AE
S1130F107C018D859E8500E313E1809FB001819F54
S1130F20700D909F700D1124072E000C880B990BE7
S1130F3057D320E030EF4FEF56E4B7D26FA778AB2A
S1130F4089AB9AAB8F859889809FB001819F700D82
S1130F50909F700D1124072E000C880B990B40D321
S1130F6020E030EF4FEF56E4A0D26BAB7CAB8DABFF
S1130F709EAB89899A89809FB001819F700D909F53
S1130F80700D1124072E000C880B990B29D320E037
S1130F9030EF4FEF56E489D2DC01CB01B058BF9358
S1130FA0AF939F938F932EA92F933DA93F938CA921
S1130FB08F932BA92F933AA93F9389A98F9328A99B
S1130FC02F933FA53F938EA58F932DA52F933CA5DB
S1130FD03F938BA58F932F923F924F925F920FA1D5
S1130FE018A529A53AA54BA15CA16DA17EA1CE01AE
S1130FF043966BD8C30101960FB6F894DEBF0FBEBB
S1131000CDBF3AE06316710409F03DC06B897C8959
S11310108D899E8920E030E44CE156E491D3ADD231
S1131020CB0196D184E091E087D16F89788D898D49
S11310309A8D20E030E44CE156E482D39ED2CB0179
S113104087D184E091E078D16B8D7C8D8D8D9E8DE0
S113105020E030E44CE156E473D38FD2CB0178D155
S113106084E091E069D16F8D78A189A19AA120E0F3
S113107030E44CE156E464D380D2CB0169D18AE0F8
S113108054D180E090E0109206013C01B2CECF939F
S1131090DF93D82FC62F80D180ED8AD18D2F88D1B0
S11310A08C2F86D181D1DF91CF910895CF93C82F12
S11310B073D180ED7DD18C2F7BD16ED181ED78D130
S11310C081D1C82F71D18C2FCF91089560E08BE628
S11310D0DEDF2FEF81EE94E0215080409040E1F775
S11310E000C0000060E08CE1D2DF60E08BE1CFDF84
S11310F062E087E3CCCF0895CF92DF92EF92FF9224
S11311000F931F93CF93DF93CDB7DEB72E970FB610
S1131110F894DEBF0FBECDBF6C017B0100E010E090
S11311200CC08BE3800FC2DFE1E0F0E0EC0FFD1FA9
S1131130E00FF11F80830F5F1F4F0E3011058CF3FA
S1131140898190E0982F88272A81822BF601918348
S113115080838B8190E0982F88272C81822B938326
S113116082838D8190E0982F88272E81822B95830E
S11311708483898590E0982F88272A85AC01422BA7
S11311802B8530E0322F22278C85282B8D8590E00B
S1131190982F88276E85862B44505109F701518377
S11311A04083205431093383228383979583848336
S11311B02E960FB6F894DEBF0FBECDBFDF91CF9150
S11311C01F910F91FF90EF90DF90CF900895CF93F0
S11311D0DF93D82FC62FE0D088E1EAD08D2FE8D056
S11311E08C2FE6D0E1D0DF91CF910895CF93C82F13
S11311F0D3D088E1DDD08C2FDBD0CED089E1D8D01C
S1131200E1D0C82FD1D08C2FCF91089560E08AE02F
S1131210DEDF8FE39CE90197F1F700C000006FE087
S11312208AE0D5DF8FE39CE90197F1F700C0000065
S113123060E08AE0CCDF8FE39CE90197F1F700C01E
S113124000000895EF92FF920F931F93CF93DF93C3
S113125000D000D000D0CDB7DEB77C0161E18AE0D8
S1131260B6DF8FE39CE90197F1F700C0000000E0CE
S113127010E00CC083E0800FB9DFE1E0F0E0EC0F98
S1131280FD1FE00FF11F80830F5F1F4F0630110514
S11312908CF38A8190E0982F88272981822BF7018B
S11312A0918380838C8190E0982F88272B81822BD7
S11312B0938382838E8190E0982F88272D81822BBF
S11312C09583848326960FB6F894DEBF0FBECDBFF8
S11312D0DF91CF911F910F91FF90EF900895DC0162
S11312E0CB01880F991FAA1FBB1F880F991FAA1F24
S11312F0BB1F9C01AD01220F331F441F551F220F3A
S1131300331F441F551F60E074E284EF90E0D2D293
S113131021503109309398002093990088E98093F3
S11313209A0086E080939D00089590919B0095FF1C
S1131330FCCF80939C000895CF93DF93EC0102C00F
S11313402196F3DF88818111FBCFDF91CF9108953E
S1131350CF93DF93CDB7DEB727970FB6F894DEBFF0
S11313600FBECDBF4AE0BE016F5F7F4FC5D2CE0135
S11313700196E2DF27960FB6F894DEBF0FBECDBF0D
S1131380DF91CF9108951092710086E480937000EC
S113139084E080937400089584EA809374008091BB
S11313A074008823E4F7089584E980937400089511
S11313B08093730084E88093740080917400882380
S11313C0E4F7089584E8809374008091740088237E
S11313D0E4F78091730008955058BB27AA270ED0D4
S11313E075C166D130F06BD120F031F49F3F11F418
S11313F01EF45BC10EF4E095E7FB51C1E92F77D1F0
S113140080F3BA17620773078407950718F071F41D
S11314109EF58FC10EF4E0950B2EBA2FA02D0B0173
S1131420B90190010C01CA01A0011124FF27591B25
S113143099F0593F50F4503E68F11A16F040A22F2B
S1131440232F342F4427585FF3CF4695379527959C
S1131450A795F0405395C9F77EF41F16BA0B620B9B
S1131460730B840BBAF09150A1F0FF0FBB1F661FE2
S1131470771F881FC2F70EC0BA0F621F731F841F25
S113148048F4879577956795B795F7959E3F08F04B
S1131490B3CF9395880F08F09927EE0F979587950A
S11314A00895D9D008F481E008950CD00FC107D174
S11314B040F0FED030F021F45F3F19F0F0C051113C
S11314C039C1F3C014D198F39923C9F35523B1F367
S11314D0951B550BBB27AA2762177307840738F09F
S11314E09F5F5F4F220F331F441FAA1FA9F333D0FE
S11314F00E2E3AF0E0E830D091505040E695001CB2
S1131500CAF729D0FE2F27D0660F771F881FBB1F6D
S1131510261737074807AB07B0E809F0BB0B802D47
S1131520BF01FF2793585F4F2AF09E3F510568F093
S1131530B6C000C15F3FECF3983EDCF38695779527
S11315406795B795F7959F5FC9F7880F911D969595
S1131550879597F90895E1E0660F771F881FBB1FF1
S1131560621773078407BA0720F0621B730B840B9E
S1131570BA0BEE1F88F7E095089504D06894B11172
S1131580D9C00895BCD088F09F5790F0B92F9927FF
S1131590B751A0F0D1F0660F771F881F991F1AF07A
S11315A0BA95C9F712C0B13081F0C3D0B1E0089543
S11315B0C0C0672F782F8827B85F39F0B93FCCF3C4
S11315C0869577956795B395D9F73EF49095809570
S11315D0709561957F4F8F4F9F4F0895E89409C090
S11315E097FB3EF490958095709561957F4F8F4F52
S11315F09F4F9923A9F0F92F96E9BB279395F69568
S1131600879577956795B795F111F8CFFAF4BB0FE5
S113161011F460FF1BC06F5F7F4F8F4F9F4F16C049
S1131620882311F096E911C0772321F09EE8872FD3
S1131630762F05C0662371F096E8862F70E060E08F
S11316402AF09A95660F771F881FDAF7880F969508
S1131650879597F90895990F0008550FAA0BE0E8AC
S1131660FEEF16161706E807F907C0F01216130660
S1131670E407F50798F0621B730B840B950B39F4A0
S11316800A2661F0232B242B252B21F408950A2606
S113169009F4A140A6958FEF811D811D089597F946
S11316A09F6780E870E060E008959FEF80EC089504
S11316B000240A941616170618060906089500242D
S11316C00A9412161306140605060895092E0394A7
S11316D0000C11F4882352F0BB0F40F4BF2B11F41B
S11316E060FF04C06F5F7F4F8F4F9F4F089557FD7A
S11316F09058440F551F59F05F3F71F04795880F7C
S113170097FB991F61F09F3F79F087950895121612
S113171013061406551FF2CF4695F1DF08C01616BE
S113172017061806991FF1CF86957105610508946F
S11317300895E894BB2766277727CB0197F9089586
S11317400BD0C4CFB5DF28F0BADF18F0952309F029
S1131750A6CFABCF1124EECFCADFA0F3959FD1F370
S1131760950F50E0551F629FF001729FBB27F00D4B
S1131770B11D639FAA27F00DB11DAA1F649F6627A0
S1131780B00DA11D661F829F2227B00DA11D621FEF
S1131790739FB00DA11D621F839FA00D611D221FA9
S11317A0749F3327A00D611D231F849F600D211D8D
S11317B0822F762F6A2F11249F5750408AF0E1F030
S11317C088234AF0EE0FFF1FBB1F661F771F881F79
S11317D091505040A9F79E3F510570F060CFAACFB9
S11317E05F3FECF3983EDCF3869577956795B79564
S11317F0F795E7959F5FC1F7FE2B880F911D96958E
S1131800879597F9089511F40EF44FCF3EC077DF12
S1131810D0F39923D9F3CEF39F57550B87FF43D0C9
S11318200024A0E640EA900180585695979528F444
S1131830805C660F771F881F20F02617370748073C
S113184030F4621B730B840B202931294A2BA69593
S113185017940794202531254A2758F7660F771FD8
S1131860881F20F026173707480730F4620B730BE4
S1131870840B200D311D411DA09581F7B901842FE2
S11318809158880F9695879508959F3F31F0915010
S113189020F4879577956795B795880F911D969550
S11318A0879597F9089591505040660F771F881FC8
S11318B0D2F70895A1E21A2EAA1BBB1BFD010DC08D
S11318C0AA1FBB1FEE1FFF1FA217B307E407F507EC
S11318D020F0A21BB30BE40BF50B661F771F881FC8
S11318E0991F1A9469F760957095809590959B015E
S11318F0AC01BD01CF010895BB274A3031F49923CF
S113190022F4BDE2909581959F4F01C0BB27FB0156
S11319105527AA27880F991FAA1FA41710F0A41BE4
S113192083955051B9F7A05DAA3308F0A95DA1933E
S1131930009779F7B111B1931192CB0100C0DC018A
S1131940FC01672F71917723E1F7329704C07C91F2
S11319506D9370836291AE17BF07C8F30895F8942E
S1051960FFCFB3
S1091962CDCC4C3F2C002B
S9030000FC
