:1000000045C0000062C0000060C000005EC000008B
:100010005CC000005AC0000058C0000056C000007C
:1000200054C0000052C0000050C000004EC000008C
:100030004CC000004AC0000048C000000C94901161
:1000400044C0000042C000000C949F113EC000005C
:100050003CC000003AC0000038C0000036C00000BC
:1000600034C0000032C0000030C000002EC00000CC
:100070002CC000002AC000000C94C91126C000004A
:1000800024C0000022C0000020C0000011241FBEB8
:10009000CFEFD0E1DEBFCDBF11E0A0E0B1E0E4E6FC
:1000A000F1E300E00BBF02C007900D92A230B10750
:1000B000D9F722E0A2E0B1E001C01D92A330B2075F
:1000C000E1F70E94F3110C94B0189ACF2F923F924F
:1000D0004F925F926F927F928F929F92AF92BF9258
:1000E000CF92DF92EF92FF920F931F93CF93DF9304
:1000F000CDB7DEB7E4970FB6F894DEBF0FBECDBF25
:100100009E838D838B011A01DC014D905D906D9073
:100110007C90A3019201C301B2010E947D176D8BF7
:100120007E8B8F8B988FED81FE8184809580A68059
:10013000B780A5019401C501B4010E947D17698FA4
:100140007A8F8B8F9C8FAD81BE8118962D913D91BA
:100150004D915C911B9729833A834B835C83CA0141
:10016000B9010E947D176D8F7E8F8F8F98A3ED81CF
:10017000FE81C484D584E684F784A7019601C70173
:10018000B6010E947D17698B7A8B8B8B9C8BA501A6
:100190009401C301B2010E947D176D877E878F870E
:1001A000988B29813A814B815C81C301B2010E9405
:1001B0007D176D837E838F839887A7019601C30186
:1001C000B2010E947D172B013C0129813A814B81AC
:1001D0005C81C501B4010E947D1769877A878B878E
:1001E0009C87A7019601C501B4010E947D174B01B0
:1001F0005C01A701960169817A818B819C810E94B3
:100200007D1769A37AA38BA39CA3D8012D913D915F
:100210004D915C9129833A834B835C836D897E8900
:100220008F89988D0E947D176B017C012D813E8105
:100230004F815885CA01B9010E94EE156DA37EA3B6
:100240008FA398A7D80118962D913D914D915C915F
:100250001B972D833E834F8358870E947D179B01F8
:10026000AC01C701B6010E94EE156B017C01A30130
:100270009201C301B2010E94EE1569A77AA78BA76C
:100280009CA7F8014480558066807780A301920185
:100290000E947D179B01AC01C701B6010E94ED15BC
:1002A0006B017C0129813A814B815C81698D7A8D5A
:1002B0008B8D9C8D0E947D179B01AC01C701B601FF
:1002C0000E94EE156B017C0129853A854B855C8582
:1002D000CA01B9010E94EE1569877A878B879C87CE
:1002E0009B01AC01C301B2010E947D179B01AC01CF
:1002F000C701B6010E94EE156B017C01A5019401B6
:10030000C501B4010E94EE156DA77EA78FA798AB1B
:100310009B01AC016D817E818F8198850E947D1744
:100320009B01AC01C701B6010E94EE156B017C0177
:1003300029813A814B815C8169897A898B899C8981
:100340000E947D179B01AC01C701B6010E94ED150B
:100350006B017C0129813A814B815C816D8D7E8DA1
:100360008F8D98A10E947D179B01AC01C701B6013A
:100370000E94ED1569AB7AAB8BAB9CAB29853A85B6
:100380004B855C8569817A818B819C810E947D1778
:100390006B017C01A30192016D8D7E8D8F8D98A1E3
:1003A0000E947D179B01AC01C701B6010E94EE15AA
:1003B0006B017C0129A13AA14BA15CA1CA01B90141
:1003C0000E94EE1569877A878B879C879B01AC0119
:1003D0006D817E818F8198850E947D179B01AC0184
:1003E000C701B6010E94EE156B017C0129A53AA553
:1003F0004BA55CA569817A818B819C810E947D17C8
:100400009B01AC01C701B6010E94EE156B017C0196
:10041000A301920169897A898B899C890E947D1741
:100420009B01AC01C701B6010E94ED156B017C0177
:10043000A30192016D897E898F89988D0E947D1715
:100440009B01AC01C701B6010E94EE154B015C0196
:100450002D853E854F855889CA01B9010E94EE1548
:100460006B017C019B01AC016D817E818F81988540
:100470000E947D179B01AC01C501B4010E94ED15DE
:100480004B015C01A3019201698D7A8D8B8D9C8D4E
:100490000E947D179B01AC01C501B4010E94ED15BE
:1004A0004B015C012DA53EA54FA558A969817A8114
:1004B0008B819C810E947D176D877E878F87988BAB
:1004C00029853A854B855C85C301B2010E947D1761
:1004D0009B01AC016D857E858F8598890E94EE1504
:1004E0006D877E878F87988B2D813E814F815885C0
:1004F00069897A898B899C890E947D179B01AC014F
:100500006D857E858F8598890E94EE15698B7A8B23
:100510008B8B9C8B2DA13EA14FA158A569817A811F
:100520008B819C810E947D179B01AC0169897A892E
:100530008B899C890E94ED1569837A838B839C83C8
:100540002D813E814F8158856D8D7E8D8F8D98A137
:100550000E947D179B01AC0169817A818B819C810E
:100560000E94ED1569837A838B839C83A701960192
:10057000C301B2010E947D179B01AC0169817A81A0
:100580008B819C810E94EE156B017C012D813E8147
:100590004F815885698D7A8D8B8D9C8D0E947D173A
:1005A0009B01AC01C701B6010E94ED156B017C01F6
:1005B0002D813E814F8158856D897E898F89988DE7
:1005C0000E947D179B01AC01C701B6010E94EE1588
:1005D00029A93AA94BA95CA9D1012D933D934D932B
:1005E0005C931397F10184829582A682B782189654
:1005F0006D937D938D939C931B97E4960FB6F8941F
:10060000DEBF0FBECDBFDF91CF911F910F91FF9045
:10061000EF90DF90CF90BF90AF909F908F907F90A2
:100620006F905F904F903F902F9008958F929F9280
:10063000AF92BF92EF92FF920F931F93CF93DF93EE
:100640008C01EB017A01FC016081718182819381CF
:10065000288139814A815B810E947D174B015C01B1
:10066000F80164817581868197812C813D814E815D
:100670005F810E947D179B01AC01C501B4010E94FE
:10068000ED154B015C01F8016085718582859385CC
:10069000288539854A855B850E947D179B01AC01C1
:1006A000C501B4010E94ED154B015C01F8016485A0
:1006B0007585868597852C853D854E855F850E944D
:1006C0007D179B01AC01C501B4010E94ED15F70136
:1006D0006083718382839383F8016481758186814D
:1006E0009781288139814A815B810E947D174B0166
:1006F0005C01F80160817181828193812C813D814F
:100700004E815F810E947D179B01AC01C501B40140
:100710000E94EE154B015C01F801608571858285B0
:1007200093852C853D854E855F850E947D179B01B5
:10073000AC01C501B4010E94EE154B015C01F8014A
:100740006485758586859785288539854A855B8585
:100750000E947D179B01AC01C501B4010E94ED15FB
:10076000F7016483758386839783F80160817181C3
:1007700082819381288539854A855B850E947D1712
:100780004B015C01F80164817581868197812C851C
:100790003D854E855F850E947D179B01AC01C5019B
:1007A000B4010E94ED154B015C01F8016085718573
:1007B00082859385288139814A815B810E947D17DA
:1007C0009B01AC01C501B4010E94EE154B015C0117
:1007D000F80164857585868597852C813D814E81DC
:1007E0005F810E947D179B01AC01C501B4010E948D
:1007F000EE15F7016087718782879387F801608122
:100800007181828193812C853D854E855F850E9413
:100810007D174B015C01F8016481758186819781A8
:10082000288539854A855B850E947D179B01AC012F
:10083000C501B4010E94EE154B015C01F801608511
:100840007185828593852C813D814E815F810E94D7
:100850007D179B01AC01C501B4010E94ED154B0150
:100860005C01F801648575858685978528813981C5
:100870004A815B810E947D179B01AC01C501B401D7
:100880000E94EE15F7016487758786879787DF9149
:10089000CF911F910F91FF90EF90BF90AF909F90DD
:1008A0008F9008952F923F924F925F926F927F9216
:1008B0008F929F92AF92BF92CF92DF92EF92FF9270
:1008C0000F931F93CF93DF93CDB7DEB7E0970FB6AB
:1008D000F894DEBF0FBECDBF1C012A013B010DA75E
:1008E0001EA72FA738AB9A01AB01C301B2010E942A
:1008F0007D176DA37EA38FA398A72DA53EA54FA519
:1009000058A9CA01B9010E947D179B01AC016DA1D4
:100910007EA18FA198A50E94EE156DA37EA38FA343
:1009200098A7A7019601C701B6010E947D179B01F8
:10093000AC016DA17EA18FA198A50E94EE150E9429
:10094000E4176DA37EA38FA398A7A5019401C50109
:10095000B4010E947D1769A77AA78BA79CA7299647
:100960002CAD3DAD4EAD5FAD2997CA01B9010E94D6
:100970007D179B01AC0169A57AA58BA59CA50E945A
:10098000EE1569A77AA78BA79CA72D962CAD3DAD38
:100990004EAD5FAD2D97CA01B9010E947D179B0135
:1009A000AC0169A57AA58BA59CA50E94EE150E94B5
:1009B000E41769A77AA78BA79CA72DA13EA14FA1F9
:1009C00058A5C301B2010E9452162B013C012DA172
:1009D0003EA14FA158A56DA57EA58FA598A90E94FF
:1009E00052166DA77EA78FA798AB2DA13EA14FA150
:1009F00058A5C701B6010E9452166DA37EA38FA30E
:100A000098A729A53AA54BA55CA5C501B4010E94EC
:100A1000521669837A838B839C8329A53AA54BA5BB
:100A20005CA529966CAD7DAD8EAD9FAD29970E94DA
:100A300052166D837E838F83988729A53AA54BA58F
:100A40005CA52D966CAD7DAD8EAD9FAD2D970E94B2
:100A5000521669877A878B879C8720E030E0A9014E
:100A60006DA17EA18FA198A50E94791718160CF090
:100A700041C020E030E040E85FE36DA17EA18FA19E
:100A800098A50E94EE156B017C0120E030E040E06B
:100A90005FE30E947D170E94E417F1016083718378
:100AA00082839383A7019601C701B6010E94EE15C8
:100AB0000E94E4176B017C019B01AC016DA57EA532
:100AC0008FA598A90E945216F101648375838683CD
:100AD0009783C301B2019058A70196010E94521654
:100AE000F101608771878287938714861586168641
:100AF00017865CC0CDA4DEA4EFA4F8A8F7FAF094A2
:100B0000F7F8F0942DA13EA14FA158A560E070E048
:100B100080E89FE30E94ED154B015C019B01AC0155
:100B20000E94EE150E94E4179B01AC01C701B601BB
:100B30000E945216F101608371838283938320E0C7
:100B400030E040E05FE3C501B4010E947D170E94E0
:100B5000E417DC01CB01B058F10184839583A683AF
:100B6000B783108611861286138673016201F7FA25
:100B7000F094F7F8F09420E030E040E85FE36DA1F6
:100B80007EA18FA198A50E94EE159B01AC010E9449
:100B9000EE150E94E4179B01AC01C701B6010E944B
:100BA0005216F1016487758786879787AE01435F88
:100BB0005F4FBE016F5F7F4FC10188DA4D845E8455
:100BC0006F847888A3019201C301B2010E947D174E
:100BD0006B017C0189889A88AB88BC88A501940147
:100BE000C501B4010E947D179B01AC01C701B6018C
:100BF0000E94EE156B017C0169817A818B819C8159
:100C000020E030E0A9010E94791718160CF047C0C7
:100C1000C701B6010E94E4179B01AC01C301B201F8
:100C20000E947D179B01AC01C701B6010E94EE1521
:100C30002B013C010E94E4176DA37EA38FA398A70C
:100C4000A7019601C701B6010E94EE150E94E417A4
:100C50009B01AC016DA17EA18FA198A50E945216A7
:100C6000698F7A8F8B8F9C8F1D8E1E8E1F8E18A280
:100C700019A21AA21BA21CA2A3019201C301B201D4
:100C80000E94EE150E94E4179B01AC01C501B4015E
:100C90000E9452166DA37EA38FA398A744C0C701DC
:100CA000B6010E94E4179B01AC01C301B2010E948E
:100CB0007D179B01AC01C701B6010E94ED152B0108
:100CC0003C01A3019201C301B2010E94EE150E94F2
:100CD000E4179B01AC01C501B4010E945216698F53
:100CE0007A8F8B8F9C8F1D8E1E8E1F8E18A219A23D
:100CF0001AA21BA21CA2C301B2010E94E4174B015D
:100D00005C01A7019601C701B6010E94EE150E9481
:100D1000E4179B01AC01C501B4010E9452166DA3FA
:100D20007EA38FA398A7F10180819181A281B381D5
:100D3000B05880839183A283B38384819581A681F7
:100D4000B781B05884839583A683B78380859185C6
:100D5000A285B385B05880879187A287B3878485A1
:100D60009585A685B785B05884879587A687B78768
:100D7000A101BE01675E7F4FC10158DCE0960FB64E
:100D8000F894DEBF0FBECDBFDF91CF911F910F91C1
:100D9000FF90EF90DF90CF90BF90AF909F908F909B
:100DA0007F906F905F904F903F902F9008952F927B
:100DB0003F924F925F926F927F928F929F92AF92EB
:100DC000BF92CF92DF92EF92FF920F931F93CF9338
:100DD000DF93CDB7DEB7C857D1090FB6F894DEBFA1
:100DE0000FBECDBF1C0149835A836B837C83098767
:100DF0001A872B873C87DC018D919D910D90BC91CA
:100E0000A02D8D8F9E8FAF8FB8A3F10144805580A8
:100E10006680778080859185A285B385898B9A8B42
:100E2000AB8BBC8B84859585A685B7858D839E838A
:100E3000AF83B8872D8D3E8D4F8D58A1CA01B90162
:100E40000E94EE156DA37EA38FA398A7A301920124
:100E5000C301B2010E94EE152D966CAF7DAF8EAF2F
:100E60009FAF2D9729893A894B895C89CA01B901BD
:100E70000E94EE1561966CAF7DAF8EAF9FAF61970C
:100E80002D813E814F815885CA01B9010E94EE151E
:100E9000A9966CAF7DAF8EAF9FAFA9972DA13EA154
:100EA0004FA158A569897A898B899C890E947D17F1
:100EB000A1966CAF7DAF8EAF9FAFA19761962CAD21
:100EC0003DAD4EAD5FAD61976D817E818F8198851F
:100ED0000E947D17A5966CAF7DAF8EAF9FAFA59793
:100EE0002D8D3E8D4F8D58A1CA01B9010E947D17ED
:100EF00069AF7AAF8BAF9CAFA30192016D8D7E8DF0
:100F00008F8D98A10E947D1721966CAF7DAF8EAF1B
:100F10009FAF219729893A894B895C896D8D7E8D98
:100F20008F8D98A10E947D1729966CAF7DAF8EAFF3
:100F30009FAF29972D813E814F8158856D8D7E8D84
:100F40008F8D98A10E947D1765966CAF7DAF8EAF97
:100F50009FAF6597A3019201C301B2010E947D1763
:100F600069A77AA78BA79CA729893A894B895C89AD
:100F7000C301B2010E947D17AD966CAF7DAF8EAFFD
:100F80009FAFAD972D813E814F815885C301B2013E
:100F90000E947D1769AB7AAB8BAB9CAB29893A89F0
:100FA0004B895C89CA01B9010E947D1769A37AA3A4
:100FB0008BA39CA32D813E814F81588569897A89B5
:100FC0008B899C890E947D17E1966CAF7DAF8EAFB7
:100FD0009FAFE1972D813E814F815885CA01B901AC
:100FE0000E947D176DAB7EAB8FAB98AF29813A81A4
:100FF0004B815C81CA01B9010E947D17698F7A8F8C
:101000008B8F9C8F29853A854B855C85CA01B901F8
:101010000E947D179B01AC01698D7A8D8B8D9C8D13
:101020000E94EE15698F7A8F8B8F9C8FA701960196
:10103000C701B6010E947D1725966CAF7DAF8EAFBC
:101040009FAF259725962CAD3DAD4EAD5FAD259755
:10105000698D7A8D8B8D9C8D0E94EE150E94E41710
:101060009B01AC0160E070E080E89FE30E945216B3
:10107000698F7A8F8B8F9C8F9B01AC0169817A81FC
:101080008B819C810E947D1769966CAF7DAF8EAF7E
:101090009FAF6997298D3A8D4B8D5C8D69857A85D7
:1010A0008B859C850E947D17E5966CAF7DAF8EAFDA
:1010B0009FAFE597298D3A8D4B8D5C8DC701B601A9
:1010C0000E947D17E9966CAF7DAF8EAF9FAFE99719
:1010D000CB56DF4F288139814A815B81C559D04089
:1010E000CA01B9010E947D176B017C01C756DF4F11
:1010F000288139814A815B81C959D040CA01B9012F
:101100000E947D179B01AC01C701B6010E94EE153C
:101110006B017C01C356DF4F288139814A815B8195
:10112000CD59D040CA01B9010E947D1769837A83E5
:101130008B839C8329813A814B815C81C701B601F5
:101140000E94EE150E94E4179B01AC0160E070E084
:1011500080E89FE30E9452166B017C019B01AC0169
:10116000CB56DF4F688179818A819B81C559D040F8
:101170000E947D17698F7A8F8B8F9C8FA7019601B4
:10118000C756DF4F688179818A819B81C959D040D8
:101190000E947D176D877E878F87988BA7019601A8
:1011A000C356DF4F688179818A819B81CD59D040B8
:1011B0000E947D176D8B7E8B8F8B988F298D3A8D3A
:1011C0004B8D5C8D6DA17EA18FA198A50E947D178E
:1011D00069877A878B879C872D853E854F855889BF
:1011E0006DA17EA18FA198A50E947D176DA77EA7F6
:1011F0008FA798AB2D893E894F89588D6DA17EA10F
:101200008FA198A50E947D1769837A838B839C8325
:10121000298D3A8D4B8D5C8D2D966CAD7DAD8EAD4F
:101220009FAD2D970E947D1725966CAF7DAF8EAF39
:101230009FAF2597298D3A8D4B8D5C8D69AD7AAD29
:101240008BAD9CAD0E947D176B017C012DA53EA549
:101250004FA558A96D817E818F8198850E947D1749
:101260009B01AC01C701B6010E94ED156B017C0129
:1012700029813A814B815C8169897A898B899C8932
:101280000E947D179B01AC01C701B6010E94EE15BB
:101290006B017C01298D3A8D4B8D5C8D69A57AA5FA
:1012A0008BA59CA50E947D179B01AC01C701B601CF
:1012B0000E94EE156B017C012D853E854F85588976
:1012C0002D966CAD7DAD8EAD9FAD2D970E947D1797
:1012D0009B01AC0169897A898B899C890E947D1761
:1012E0009B01AC01C701B6010E94EE156B017C01A8
:1012F0002D893E894F89588D2D966CAD7DAD8EAD73
:101300009FAD2D970E947D179B01AC016D817E8161
:101310008F8198850E947D179B01AC01C701B601A2
:101320000E94EE156B017C01298D3A8D4B8D5C8DF1
:1013300069A17AA18BA19CA10E947D179B01AC01A0
:10134000C701B6010E94ED156B017C01298D3A8D14
:101350004B8D5C8D6DA97EA98FA998AD0E947D17DC
:101360009B01AC01C701B6010E94ED156B017C0128
:1013700029853A854B855C856D817E818F81988535
:101380000E947D176D966CAF7DAF8EAF9FAF6D974E
:101390002D853E854F85588969AD7AAD8BAD9CAD65
:1013A0000E947D179B01AC016D966CAD7DAD8EAD3D
:1013B0009FAD6D970E94EE156D966CAF7DAF8EAFB1
:1013C0009FAF6D9729813A814B815C81C301B20146
:1013D0000E947D179B01AC016D966CAD7DAD8EAD0D
:1013E0009FAD6D970E94ED1569837A838B839C83F3
:1013F00025962CAD3DAD4EAD5FAD259769897A89B7
:101400008B899C890E947D179B01AC0169817A813F
:101410008B819C810E94EE1569837A838B839C83E8
:101420002D853E854F85588969A57AA58BA59CA5F4
:101430000E947D179B01AC0169817A818B819C811F
:101440000E94ED1569837A838B839C832D853E856D
:101450004F85588969A17AA18BA19CA10E947D1713
:101460009B01AC0169817A818B819C810E94EE1580
:1014700069837A838B839C832D893E894F89588D1C
:1014800061966CAD7DAD8EAD9FAD61970E947D176D
:101490009B01AC016D817E818F8198850E947D17B3
:1014A0009B01AC0169817A818B819C810E94EE1540
:1014B00069837A838B839C832D853E854F855889EC
:1014C0006DA97EA98FA998AD0E947D179B01AC01E3
:1014D00069817A818B819C810E94ED1569837A8371
:1014E0008B839C83A7019601C701B6010E947D17DB
:1014F0006B017C0129813A814B815C81CA01B90170
:101500000E947D179B01AC01C701B6010E94EE1538
:101510000E94E41769837A838B839C8329853A85AB
:101520004B855C85505869897A898B899C890E9492
:101530007D176B017C012DA53EA54FA558A9C301C0
:10154000B2010E947D179B01AC01C701B6010E9448
:10155000EE156B017C012D893E894F89588D69AD4F
:101560007AAD8BAD9CAD0E947D179B01AC01C7018C
:10157000B6010E94EE156B017C0125962CAD3DADA8
:101580004EAD5FAD25976D817E818F8198850E94DC
:101590007D179B01AC01C701B6010E94EE156B01DE
:1015A0007C012D893E894F89588D69A57AA58BA527
:1015B0009CA50E947D179B01AC01C701B6010E944A
:1015C000ED156B017C012D853E854F85588961960F
:1015D0006CAD7DAD8EAD9FAD61970E947D179B0177
:1015E000AC016D817E818F8198850E947D179B0162
:1015F000AC01C701B6010E94EE156B017C012D897B
:101600003E894F89588D69A17AA18BA19CA10E9426
:101610007D179B01AC01C701B6010E94ED156B015E
:101620007C012D893E894F89588D6DA97EA98FA98E
:1016300098AD0E947D179B01AC01C701B6010E94C5
:10164000EE1569877A878B879C8729813A814B8140
:101650005C81CA01B9010E94EE156D966CAF7DAF39
:101660008EAF9FAF6D9729853A854B855C85CA0102
:10167000B9010E94EE1525966CAF7DAF8EAF9FAF7E
:1016800025976196CCACDDACEEACFFAC6197F7FA78
:10169000F094F7F8F09429A93AA94BA95CA9CA01DA
:1016A000B9010E94EE15A1962CAD3DAD4EAD5FADDA
:1016B000A1970E94ED1569962CAD3DAD4EAD5FAD85
:1016C00069970E94ED156DA77EA78FA798AB9B0128
:1016D000AC01C701B6010E947D176B017C01219608
:1016E0002CAD3DAD4EAD5FAD2197CA01B9010E9451
:1016F000EE159B01AC01A5966CAD7DAD8EAD9FAD99
:10170000A5970E94EE15E5962CAD3DAD4EAD5FADB3
:10171000E5970E94ED1569AF7AAF8BAF9CAF9B0147
:10172000AC012D966CAD7DAD8EAD9FAD2D970E9419
:101730007D179B01AC01C701B6010E94EE156B013C
:101740007C0129853A854B855C8569897A898B89F5
:101750009C890E947D17A1966CAF7DAF8EAF9FAF25
:10176000A19729A13AA14BA15CA160E070E080E0C3
:101770009FE30E94ED152DA93EA94FA958AD0E94E7
:10178000ED159B01AC0169817A818B819C810E945E
:101790007D176DAB7EAB8FAB98AF29962CAD3DAD71
:1017A0004EAD5FAD299769A97AA98BA99CA90E9422
:1017B000ED159B01AC0169857A858B859C850E941E
:1017C0007D179B01AC016DA97EA98FA998AD0E94E0
:1017D000EE15298D3A8D4B8D5C8D0E94ED15698F2C
:1017E0007A8F8B8F9C8F9B01AC01A1966CAD7DADE8
:1017F0008EAD9FADA1970E947D179B01AC01C701E3
:10180000B6010E94ED156B017C0189819A81AB8143
:10181000BC81B0588DAB9EABAFABB8AF9C01AD01F6
:101820006D817E818F8198850E947D1769966CAF4E
:101830007DAF8EAF9FAF699729853A854B855C85D3
:10184000C301B2010E947D17A5966CAF7DAF8EAF2C
:101850009FAFA5979B01AC0169966CAD7DAD8EAD38
:101860009FAD69970E94EE1569966CAF7DAF8EAF04
:101870009FAF699765962CAD3DAD4EAD5FAD659759
:10188000AD966CAD7DAD8EAD9FADAD970E94ED1563
:101890009B01AC0169817A818B819C810E947D17BB
:1018A00065966CAF7DAF8EAF9FAF6597E1962CAD1F
:1018B0003DAD4EAD5FADE19721966CAD7DAD8EAD8A
:1018C0009FAD21970E94EE159B01AC0169857A8539
:1018D0008B859C850E947D179B01AC0165966CAD44
:1018E0007DAD8EAD9FAD65970E94EE152D853E8531
:1018F0004F8558890E94ED156D877E878F87988B5D
:101900009B01AC0169966CAD7DAD8EAD9FAD6997C5
:101910000E947D179B01AC01C701B6010E94EE1524
:101920006B017C0129813A814B815C8169897A89CB
:101930008B899C890E947D1721966CAF7DAF8EAFFD
:101940009FAF219729A93AA94BA95CA929966CAD0B
:101950007DAD8EAD9FAD29970E94EE159B01AC0128
:1019600069817A818B819C810E947D1769AB7AABFA
:101970008BAB9CAB29A53AA54BA55CA560E070E0BC
:1019800080E09FE30E94ED1529A13AA14BA15CA143
:101990000E94ED159B01AC0169857A858B859C853C
:1019A0000E947D179B01AC0169A97AA98BA99CA90A
:1019B0000E94EE152D893E894F89588D0E94ED15A4
:1019C0006D8B7E8B8F8B988F9B01AC0121966CADBC
:1019D0007DAD8EAD9FAD21970E947D179B01AC011F
:1019E000C701B6010E94EE1569AB7AAB8BAB9CAB1D
:1019F0002DA53EA54FA558A9A9966CAD7DAD8EAD80
:101A00009FADA9970E947D176B017C0129AD3AAD6E
:101A10004BAD5CAD6DA17EA18FA198A50E947D17F5
:101A20009B01AC01C701B6010E94EE1529966CAF6F
:101A30007DAF8EAF9FAF299720E030E040E850E4C3
:101A4000C301B2010E947D1765966CAF7DAF8EAF6A
:101A50009FAF659729A53AA54BA55CA5CA01B90119
:101A60000E94EE159B01AC0160E070E080E89FE30E
:101A70000E94ED156B017C0129A13AA14BA15CA14B
:101A8000CA01B9010E94EE159B01AC01C701B60164
:101A90000E94ED15E9962CAD3DAD4EAD5FADE997D9
:101AA0000E94ED156B017C019B01AC0165966CAD4C
:101AB0007DAD8EAD9FAD65970E947D179B01AC01FA
:101AC00029966CAD7DAD8EAD9FAD29970E94ED1529
:101AD00069A77AA78BA79CA729853A854B855C8542
:101AE0006D817E818F8198850E947D1769A37AA37D
:101AF0008BA39CA39B01AC01698D7A8D8B8D9C8DF2
:101B00000E947D179B01AC0169A57AA58BA59CA5B8
:101B10000E94EE1529966CAF7DAF8EAF9FAF2997CF
:101B200029853A854B855C856D8D7E8D8F8D98A13D
:101B30000E947D1769A77AA78BA79CA79B01AC0180
:101B400021966CAD7DAD8EAD9FAD21970E94EE15B7
:101B50009B01AC016D857E858F8598890E947D17DC
:101B60009B01AC0129966CAD7DAD8EAD9FAD2997E3
:101B70000E94EE1569877A878B879C8729813A8135
:101B80004B815C816D817E818F8198850E947D175C
:101B900021966CAF7DAF8EAF9FAF219725962CAD70
:101BA0003DAD4EAD5FAD2597C301B2010E947D17DB
:101BB0009B01AC0121966CAD7DAD8EAD9FAD2197A3
:101BC0000E94ED159B01AC016D897E898F89988DEE
:101BD0000E947D179B01AC0169857A858B859C8568
:101BE000FDD769877A878B879C872DA13EA14FA15E
:101BF00058A550586DA57EA58FA598A90E947D1760
:101C00006DA37EA38FA398A729AD3AAD4BAD5CAD74
:101C1000A9966CAD7DAD8EAD9FADA9970E947D1745
:101C20009B01AC016DA17EA18FA198A5D7D76DA313
:101C30007EA38FA398A720E030E040E850E46989B4
:101C40007A898B899C890E947D179B01AC01C70111
:101C5000B6010E947D179B01AC016DA17EA18FA1F1
:101C600098A5BBD76DA37EA38FA398A76D96CCAC88
:101C7000DDACEEACFFAC6D97F7FAF094F7F8F094AA
:101C8000A701960169897A898B899C890E947D17B1
:101C900029A53AA54BA55CA5A0D79B01AC01698DF0
:101CA0007A8D8B8D9C8D0E947D179B01AC016DA15F
:101CB0007EA18FA198A592D769A77AA78BA79CA789
:101CC00029813A814B815C81C301B2010E947D1759
:101CD0006DA37EA38FA398A79B01AC0169A17AA1F4
:101CE0008BA19CA17BD79B01AC016D857E858F85E7
:101CF00098890E947D179B01AC0169A57AA58BA5E7
:101D00009CA56CD769A37AA38BA39CA329813A8154
:101D10004B815C816D8D7E8D8F8D98A10E947D178A
:101D200069837A838B839C8325962CAD3DAD4EAD24
:101D30005FAD259769897A898B899C890E947D1777
:101D40009B01AC0169817A818B819C8146D79B0183
:101D5000AC016D897E898F89988D0E947D179B01CA
:101D6000AC0169A17AA18BA19CA138D769837A8340
:101D70008B839C832DA53EA54FA558A92D966CADB0
:101D80007DAD8EAD9FAD2D970E947D1769A37AA37F
:101D90008BA39CA329AD3AAD4BAD5CAD61966CAD08
:101DA0007DAD8EAD9FAD61970E947D179B01AC010B
:101DB00069A17AA18BA19CA111D769A37AA38BA356
:101DC0009CA3A70196016D817E818F8198850E94D9
:101DD0007D179B01AC01A5966CAD7DAD8EAD9FAD21
:101DE000A597FCD69B01AC01698D7A8D8B8D9C8D5E
:101DF0000E947D179B01AC0169A17AA18BA19CA1D6
:101E0000EDD66B017C012DA93EA94FA958AD6D8D72
:101E10007E8D8F8D98A10E947D179B01AC01A196AC
:101E20006CAD7DAD8EAD9FADA197D8D69B01AC01B9
:101E30006D857E858F8598890E947D179B01AC01F9
:101E4000C701B601CBD66B017C012DA13EA14FA1EC
:101E500058A56D897E898F89988D0E947D179B0179
:101E6000AC01C701B601BAD66D877E878F87988B84
:101E700029A93AA94BA95CA9CA01B9010E947D17F9
:101E80006B017C0129853A854B855C85CA01B901C6
:101E90000E947D179B01AC01C701B6019FD66B0163
:101EA0007C0129813A814B815C81CA01B9010E9480
:101EB0007D179B01AC01C701B60190D66B017C0177
:101EC0002D853E854F855889CA01B9010E947D172D
:101ED0009B01AC01C701B60181D60E94E4179B01AA
:101EE000AC0160E070E080E89FE3DCD66B017C0130
:101EF0009B01AC0169A97AA98BA99CA9FED76D8B1E
:101F00007E8B8F8B988FA701960169857A858B854B
:101F10009C85F3D769877A878B879C87A701960171
:101F200069817A818B819C81E8D769837A838B83ED
:101F30009C83A70196016D857E858F859889DDD765
:101F40006D877E878F87988BC301B2019058A5015A
:101F50009401D3D76B017C01C357DF4F28813981AE
:101F60004A815B81CD58D04069897A898B899C8967
:101F7000C4D79B01AC01C701B6012FD66B017C0110
:101F8000CF56DF4F288139814A815B81C159D040CA
:101F90006D817E818F819885B0D79B01AC01C7018F
:101FA000B6011BD620E030E040E05FE3A6D76B012E
:101FB0007C012DEC3CEC4CE45FE36D897E898F89DC
:101FC000988D9BD79B01AC01C701B60106D66D8BDE
:101FD0007E8B8F8B988FA50194016D8D7E8D8F8D5B
:101FE00098A18BD76B017C01CF56DF4F28813981B7
:101FF0004A815B81C159D04069897A898B899C89E2
:102000007CD79B01AC01C701B601E8D56B017C010F
:10201000C357DF4F288139814A815B81CD58D04039
:102020006D817E818F81988568D79B01AC01C70146
:10203000B601D3D520E030E040E05FE35ED76B012E
:102040007C012DEC3CEC4CE45FE369857A858B8563
:102050009C8553D79B01AC01C701B601BED56987EA
:102060007A878B879C87C357DF4F288139814A81C4
:102070005B81CD58D0406D8D7E8D8F8D98A13DD7E1
:102080006B017C01CF56DF4F288139814A815B810A
:10209000C159D040C301B20130D79B01AC01C70187
:1020A000B6019BD56B017C01A50194016D817E81F8
:1020B0008F81988522D79B01AC01C701B6018ED5CF
:1020C00020E030E040E05FE318D76B017C012DECAD
:1020D0003CEC4CE45FE369817A818B819C810DD774
:1020E0009B01AC01C701B60178D569837A838B83E4
:1020F0009C83CF56DF4F288139814A815B81C1594A
:10210000D0406D8D7E8D8F8D98A1F7D66B017C01AF
:10211000C357DF4F288139814A815B81CD58D04038
:10212000C301B201EAD69B01AC01C701B60156D585
:102130006B017C01A501940169897A898B899C894D
:10214000DCD69B01AC01C701B60147D520E030E0E9
:1021500040E05FE3D2D66B017C012DEC3CEC4CE41B
:102160005FE36D857E858F859889C7D69B01AC011D
:10217000C701B60132D56B017C0120E030E040E8B8
:102180005CE36D897E898F89988DB7D69B01AC0100
:102190006D8D7E8D8F8D98A121D56D8F7E8F8F8FC8
:1021A00098A320E030E040E85CE369857A858B8580
:1021B0009C85A3D69B01AC01C301B2010FD52B01B5
:1021C0003C0120E030E040E85CE369817A818B816A
:1021D0009C8193D69B01AC0169897A898B899C8902
:1021E000FDD44B015C0120E030E040E85CE3C70136
:1021F000B60183D69B01AC016D817E818F8198856C
:10220000EDD46D837E838F8398872D8D3E8D4F8D8A
:1022100058A1CA01B90171D66B017C01A3019201D9
:10222000C301B2016AD69B01AC01C701B601D6D485
:102230006B017C01A5019401C501B4015ED69B012F
:10224000AC01C701B601CAD46B017C012D813E816E
:102250004F815885CA01B90150D69B01AC01C70115
:10226000B601BCD4B1D69B01AC0160E070E080E85F
:102270009FE318D56B017C019B01AC016D8D7E8DB8
:102280008F8D98A13AD6D1016D937D938D939C93B8
:102290001397A7019601C301B2012FD6F101648300
:1022A000758386839783A7019601C501B40125D65E
:1022B000D10118966D937D938D939C931B97A701E5
:1022C00096016D817E818F81988517D6F101648793
:1022D000758786879787C858DF4F0FB6F894DEBF9B
:1022E0000FBECDBFDF91CF911F910F91FF90EF9067
:1022F000DF90CF90BF90AF909F908F907F906F9026
:102300005F904F903F902F90089588E083BF8DE1BC
:1023100081BF83B7856083BF87B7826087BF089519
:102320001F920F920FB60F9211248F9381E080932A
:1023300002018F910F900FBE0F901F9018951F9262
:102340000F920FB60F9211240BB60F922F933F935B
:102350004F935F936F937F938F939F93AF93BF93AD
:10236000EF93FF936AE083E091E091D3FF91EF91C7
:10237000BF91AF919F918F917F916F915F914F919D
:102380003F912F910F900BBE0F900FBE0F901F909B
:1023900018951F920F920FB60F9211240BB60F9241
:1023A0002F933F934F935F936F937F938F939F935D
:1023B000AF93BF93EF93FF936AE083E891E0B8D3C4
:1023C000FF91EF91BF91AF919F918F917F916F910D
:1023D0005F914F913F912F910F900BBE0F900FBEC9
:1023E0000F901F901895CF93DF93CDB7DEB7E69788
:1023F0000FB6F894DEBF0FBECDBF80E090E0A0E83E
:10240000BFE38B8B9C8BAD8BBE8B1F8A188E198E76
:102410001A8E1B8E1C8E1D8E1E8E1F8E18A219A248
:102420001AA260E071EE80E090E042D3ADD322D2F8
:10243000C1D26BDF7894BE01695F7F4FCE010196F8
:102440002FD2CE010D96D2D26B817C81072E000C4B
:10245000880B990BC2D423EC35EF4CE151E44DD5F8
:102460009B01AC01BBD320E030E040E058E345D510
:102470006BA37CA38DA39EA369817A81072E000C98
:10248000880B990BAAD423EC35EF4CE151E435D5F8
:102490009B01AC01A3D320E030E040E058E32DD510
:1024A0006FA378A789A79AA76D817E8171956195A1
:1024B0007109072E000C880B990B8FD423EC35EF94
:1024C0004CE151E41AD59B01AC0188D320E030E007
:1024D00040E058E312D56B017C018D859E8500E3B9
:1024E00013E1809FB001819F700D909F700D1124AA
:1024F000072E000C880B990B70D420E030EF4FEFC3
:1025000056E4D0D34B015C018F859889809FB00140
:10251000819F700D909F700D1124072E000C880B69
:10252000990B5BD420E030EF4FEF56E4BBD3762E0F
:10253000672E282E392E89899A89809FB001819F24
:10254000700D909F700D1124072E000C880B990BB5
:1025500044D420E030EF4FEF56E4A4D39F938F9301
:102560007F936F933F922F926F927F920FA118A546
:1025700029A53AA54BA15CA16DA17EA1CE014396F0
:102580000E9452040FB6F894DEBF0FBECDBF612C7F
:10259000712C809102018823E1F3BE01695F7F4FB6
:1025A000CE0101967DD1CE010D9620D26B817C812A
:1025B000072E000C880B990B10D423EC35EF4CE15F
:1025C00051E49BD49B01AC0109D320E030E040E012
:1025D00058E393D46BA37CA38DA39EA369817A81D6
:1025E000072E000C880B990BF8D323EC35EF4CE148
:1025F00051E483D49B01AC01F1D220E030E040E013
:1026000058E37BD46FA378A789A79AA76D817E81B1
:10261000719561957109072E000C880B990BDDD31C
:1026200023EC35EF4CE151E468D49B01AC01D6D2E8
:1026300020E030E040E058E360D46B017C01698524
:102640007A85072E000C880B990BC7D320E030E069
:102650004AEF5BE352D425E33AEF4EE85CE34DD416
:102660004B015C016F817885072E000C880B990B5C
:10267000B4D320E030E04AEF5BE33FD425E33AEF08
:102680004EE85CE33AD4562E472E382E292E6B8521
:102690007C85719561957109072E000C880B990B4B
:1026A0009CD320E030E04AEF5BE327D425E33AEF08
:1026B0004EE85CE322D46BA77CA78DA79EA78D85EF
:1026C0009E8500E313E1809FB001819F700D909F74
:1026D000700D1124072E000C880B990B7ED320E07F
:1026E00030EF4FEF56E4DED26FA778AB89AB9AABF1
:1026F0008F859889809FB001819F700D909F700D8C
:102700001124072E000C880B990B67D320E030EFC3
:102710004FEF56E4C7D26BAB7CAB8DAB9EAB8989D8
:102720009A89809FB001819F700D909F700D112438
:10273000072E000C880B990B50D320E030EF4FEFA1
:1027400056E4B0D29F938F937F936F933EA93F93AC
:102750008DA98F939CA99F932BA92F933AA93F935F
:1027600089A98F9398A99F932FA52F933EA53F9357
:102770008DA58F939CA59F932BA52F932F923F926E
:102780004F925F920FA118A529A53AA54BA15CA174
:102790006DA17EA1CE0143960E94D706C30101968A
:1027A0000FB6F894DEBF0FBECDBF34E163167104DF
:1027B00009F03DC06B897C898D899E8920E030E4D9
:1027C0004CE156E49AD3D6D2CB01C3D180E091E05C
:1027D000A3D16F89788D898D9A8D20E030E44CE10A
:1027E00056E48BD3C7D2CB01B4D180E091E094D131
:1027F0006B8D7C8D8D8D9E8D20E030E44CE156E418
:102800007CD3B8D2CB01A5D180E091E085D16F8D8A
:1028100078A189A19AA120E030E44CE156E46DD37F
:10282000A9D2CB0196D18AE069D180E090E01092E4
:1028300002013C01AECECF93DF93D82FC62FADD18E
:1028400080EDB7D18D2FB5D18C2FB3D1AED1DF9123
:10285000CF910895CF93C82FA0D180EDAAD18C2F0E
:10286000A8D19BD181EDA5D1AED1C82F9ED18C2FFF
:10287000CF91089560E08BE6DEDF2FEF81EE94E0EC
:10288000215080409040E1F700C0000060E08CE102
:10289000D2DF60E08BE1CFDF62E087E3CCCF089549
:1028A000CF92DF92EF92FF920F931F93CF93DF931C
:1028B000CDB7DEB72E970FB6F894DEBF0FBECDBFF3
:1028C0006C017B0100E010E00CC08BE3800FC2DFE5
:1028D000E1E0F0E0EC0FFD1FE00FF11F80830F5FE0
:1028E0001F4F0E3011058CF3898190E0982F8827B7
:1028F0002A81822BF601918380838B8190E0982F2F
:1029000088272C81822B938382838D8190E0982F5E
:1029100088272E81822B95838483898590E0982F48
:1029200088272A85AC01422B2B8530E0322F2227C5
:102930008C85282B8D8590E0982F88276E85862B97
:1029400044505109F70151834083205431093383A6
:1029500022838397958384832E960FB6F894DEBFE7
:102960000FBECDBFDF91CF911F910F91FF90EF90E0
:10297000DF90CF900895CF93DF93D82FC62F0DD13E
:1029800088E117D18D2F15D18C2F13D10ED1DF9166
:10299000CF910895CF93C82F00D188E10AD18C2F11
:1029A00008D1FBD089E105D10ED1C82FFED08C2FE4
:1029B000CF91089560E08AE0DEDF8FE39CE9019724
:1029C000F1F700C000006FE08AE0D5DF8FE39CE9FB
:1029D0000197F1F700C0000060E08AE0CCDF8FE3F0
:1029E0009CE90197F1F700C000000895EF92FF9273
:1029F0000F931F93CF93DF9300D000D000D0CDB7BB
:102A0000DEB77C0161E18AE0B6DF8FE39CE90197E4
:102A1000F1F700C0000000E010E00CC083E0800F80
:102A2000B9DFE1E0F0E0EC0FFD1FE00FF11F808364
:102A30000F5F1F4F063011058CF38A8190E0982FAD
:102A400088272981822BF701918380838C8190E0F4
:102A5000982F88272B81822B938382838E8190E00D
:102A6000982F88272D81822B9583848326960FB6F5
:102A7000F894DEBF0FBECDBFDF91CF911F910F91B4
:102A8000FF90EF9008955F9BFECF8CB108951F9348
:102A9000CF93DF93EC01162FF6DF811302C018826B
:102AA00003C088832196F8CFDF91CF911F910895BD
:102AB000DC01CB01880F991FAA1FBB1F880F991F2C
:102AC000AA1FBB1F9C01AD01220F331F441F551FBE
:102AD000220F331F441F551F60E074E284EF90E023
:102AE000EAD221503109309398002093990088E967
:102AF00080939A0086E080939D00089590919B00BA
:102B000095FFFCCF80939C00089580919B008823C3
:102B1000E4F780919C000895CF93DF93EC0102C00D
:102B20002196ECDF88818111FBCFDF91CF91089551
:102B30001F93CF93DF93EC01162FE7DF811302C0C1
:102B4000188203C088832196F8CFDF91CF911F911F
:102B50000895CF93DF93CDB7DEB727970FB6F894DC
:102B6000DEBF0FBECDBF4AE0BE016F5F7F4FC5D253
:102B7000CE010196D1DF27960FB6F894DEBF0FBEC7
:102B8000CDBFDF91CF9108951092710086E48093BC
:102B9000700084E080937400089584EA8093740048
:102BA000809174008823E4F7089584E98093740089
:102BB00008958093730084E880937400809174007A
:102BC0008823E4F7089584E880937400809174006A
:102BD0008823E4F78091730008955058BB27AA27F3
:102BE0000ED04DC13ED130F043D120F031F49F3FA3
:102BF00011F41EF433C10EF4E095E7FB29C1E92F6F
:102C00004FD180F3BA17620773078407950718F04E
:102C100071F49EF567C10EF4E0950B2EBA2FA02D2E
:102C20000B01B90190010C01CA01A0011124FF2779
:102C3000591B99F0593F50F4503E68F11A16F04074
:102C4000A22F232F342F4427585FF3CF4695379573
:102C50002795A795F0405395C9F77EF41F16BA0B38
:102C6000620B730B840BBAF09150A1F0FF0FBB1FE6
:102C7000661F771F881FC2F70EC0BA0F621F731F2F
:102C8000841F48F4879577956795B795F7959E3F8C
:102C900008F0B3CF9395880F08F09927EE0F97951A
:102CA000879508950CD0EBC0E3D040F0DAD030F037
:102CB00021F45F3F19F0CCC0511115C1CFC0F0D045
:102CC00098F39923C9F35523B1F3951B550BBB27F3
:102CD000AA2762177307840738F09F5F5F4F220FA0
:102CE000331F441FAA1FA9F333D00E2E3AF0E0E899
:102CF00030D091505040E695001CCAF729D0FE2FE5
:102D000027D0660F771F881FBB1F26173707480776
:102D1000AB07B0E809F0BB0B802DBF01FF2793582C
:102D20005F4F2AF09E3F510568F092C0DCC05F3FC4
:102D3000ECF3983EDCF3869577956795B795F79514
:102D40009F5FC9F7880F911D9695879597F908950C
:102D5000E1E0660F771F881FBB1F621773078407A8
:102D6000BA0720F0621B730B840BBA0BEE1F88F7B7
:102D7000E095089504D06894B111B5C0089598D035
:102D800088F09F5790F0B92F9927B751A0F0D1F054
:102D9000660F771F881F991F1AF0BA95C9F712C0DE
:102DA000B13081F09FD0B1E008959CC0672F782F9B
:102DB0008827B85F39F0B93FCCF38695779567954A
:102DC000B395D9F73EF490958095709561957F4FB6
:102DD0008F4F9F4F0895E89409C097FB3EF490955C
:102DE0008095709561957F4F8F4F9F4F9923A9F0E4
:102DF000F92F96E9BB279395F69587957795679573
:102E0000B795F111F8CFFAF4BB0F11F460FF1BC0B6
:102E10006F5F7F4F8F4F9F4F16C0882311F096E949
:102E200011C0772321F09EE8872F762F05C06623F7
:102E300071F096E8862F70E060E02AF09A95660FB0
:102E4000771F881FDAF7880F9695879597F9089569
:102E500097F99F6780E870E060E008959FEF80EC4D
:102E6000089500240A9416161706180609060895F0
:102E700000240A9412161306140605060895092E56
:102E80000394000C11F4882352F0BB0F40F4BF2BC5
:102E900011F460FF04C06F5F7F4F8F4F9F4F089505
:102EA00057FD9058440F551F59F05F3F71F04795FB
:102EB000880F97FB991F61F09F3F79F087950895E0
:102EC000121613061406551FF2CF4695F1DF08C0FF
:102ED000161617061806991FF1CF8695710561051C
:102EE00008940895E894BB2766277727CB0197F9C4
:102EF0000895A8D008F48FEF08950BD0C0CFB1DFAC
:102F000028F0B6DF18F0952309F0A2CFA7CF11243F
:102F1000EACFC6DFA0F3959FD1F3950F50E0551F80
:102F2000629FF001729FBB27F00DB11D639FAA271E
:102F3000F00DB11DAA1F649F6627B00DA11D661F6D
:102F4000829F2227B00DA11D621F739FB00DA11D8E
:102F5000621F839FA00D611D221F749F3327A00D48
:102F6000611D231F849F600D211D822F762F6A2FE4
:102F700011249F5750408AF0E1F088234AF0EE0F69
:102F8000FF1FBB1F661F771F881F91505040A9F776
:102F90009E3F510570F05CCFA6CF5F3FECF3983EAB
:102FA000DCF3869577956795B795F795E7959F5FDD
:102FB000C1F7FE2B880F911D9695879597F9089577
:102FC00011F40EF44BCF62C073DFD0F39923D9F321
:102FD000CEF39F57550B87FF67D00024A0E640EA49
:102FE000900180585695979528F4805C660F771F5E
:102FF000881F20F026173707480730F4621B730B31
:10300000840B202931294A2BA69517940794202553
:1030100031254A2758F7660F771F881F20F026179B
:103020003707480730F4620B730B840B200D311DFA
:10303000411DA09581F7B901842F9158880F96956D
:1030400087950895990F0008550FAA0BE0E8FEEF49
:1030500016161706E807F907C0F012161306E4075C
:10306000F50798F0621B730B840B950B39F40A2655
:1030700061F0232B242B252B21F408950A2609F433
:10308000A140A6958FEF811D811D08959F3F31F0CE
:10309000915020F4879577956795B795880F911D86
:1030A0009695879597F9089591505040660F771F30
:1030B000881FD2F70895A1E21A2EAA1BBB1BFD019F
:1030C0000DC0AA1FBB1FEE1FFF1FA217B307E40707
:1030D000F50720F0A21BB30BE40BF50B661F771F5F
:1030E000881F991F1A9469F760957095809590953F
:1030F0009B01AC01BD01CF010895BB274A3031F4DB
:10310000992322F4BDE2909581959F4F01C0BB2782
:10311000FB015527AA27880F991FAA1FA41710F093
:10312000A41B83955051B9F7A05DAA3308F0A95D9F
:10313000A193009779F7B111B1931192CB0100C01F
:10314000DC01FC01672F71917723E1F7329704C00E
:103150007C916D9370836291AE17BF07C8F3089599
:04316000F894FFCF11
:023164002C003D
:00000001FF
