:1000000045C0000062C0000060C000005EC000008B
:100010005CC000005AC0000058C0000056C000007C
:1000200054C0000052C0000050C000004EC000008C
:100030004CC000004AC0000048C000000C946D1184
:1000400044C0000042C000000C947C113EC000007F
:100050003CC000003AC0000038C0000036C00000BC
:1000600034C0000032C0000030C000002EC00000CC
:100070002CC000000C94D0110C94A61126C00000D6
:1000800024C0000022C0000020C0000011241FBEB8
:10009000CFEFD0E1DEBFCDBF11E0A0E0B1E0E8E7F7
:1000A000FFE200E00BBF02C007900D92A230B10743
:1000B000D9F722E0A2E0B1E001C01D92A730B2075B
:1000C000E1F70E94F5110C94BA179ACF2F923F9244
:1000D0004F925F926F927F928F929F92AF92BF9258
:1000E000CF92DF92EF92FF920F931F93CF93DF9304
:1000F000CDB7DEB7E4970FB6F894DEBF0FBECDBF25
:100100009E838D838B011A01DC014D905D906D9073
:100110007C90A3019201C301B2010E9487166D8BEE
:100120007E8B8F8B988FED81FE8184809580A68059
:10013000B780A5019401C501B4010E948716698F9B
:100140007A8F8B8F9C8FAD81BE8118962D913D91BA
:100150004D915C911B9729833A834B835C83CA0141
:10016000B9010E9487166D8F7E8F8F8F98A3ED81C6
:10017000FE81C484D584E684F784A7019601C70173
:10018000B6010E948716698B7A8B8B8B9C8BA5019D
:100190009401C301B2010E9487166D877E878F8705
:1001A000988B29813A814B815C81C301B2010E9405
:1001B00087166D837E838F839887A7019601C3017D
:1001C000B2010E9487162B013C0129813A814B81A3
:1001D0005C81C501B4010E94871669877A878B8785
:1001E0009C87A7019601C501B4010E9487164B01A7
:1001F0005C01A701960169817A818B819C810E94B3
:10020000871669A37AA38BA39CA3D8012D913D9156
:100210004D915C9129833A834B835C836D897E8900
:100220008F89988D0E9487166B017C012D813E81FC
:100230004F815885CA01B9010E9429156DA37EA37B
:100240008FA398A7D80118962D913D914D915C915F
:100250001B972D833E834F8358870E9487169B01EF
:10026000AC01C701B6010E9429156B017C01A301F5
:100270009201C301B2010E94291569A77AA78BA731
:100280009CA7F8014480558066807780A301920185
:100290000E9487169B01AC01C701B6010E94281578
:1002A0006B017C0129813A814B815C81698D7A8D5A
:1002B0008B8D9C8D0E9487169B01AC01C701B601F6
:1002C0000E9429156B017C0129853A854B855C8547
:1002D000CA01B9010E94291569877A878B879C8793
:1002E0009B01AC01C301B2010E9487169B01AC01C6
:1002F000C701B6010E9429156B017C01A50194017B
:10030000C501B4010E9429156DA77EA78FA798ABE0
:100310009B01AC016D817E818F8198850E9487163B
:100320009B01AC01C701B6010E9429156B017C013C
:1003300029813A814B815C8169897A898B899C8981
:100340000E9487169B01AC01C701B6010E942815C7
:100350006B017C0129813A814B815C816D8D7E8DA1
:100360008F8D98A10E9487169B01AC01C701B60131
:100370000E94281569AB7AAB8BAB9CAB29853A857B
:100380004B855C8569817A818B819C810E9487166F
:100390006B017C01A30192016D8D7E8D8F8D98A1E3
:1003A0000E9487169B01AC01C701B6010E94291566
:1003B0006B017C0129A13AA14BA15CA1CA01B90141
:1003C0000E94291569877A878B879C879B01AC01DE
:1003D0006D817E818F8198850E9487169B01AC017B
:1003E000C701B6010E9429156B017C0129A53AA518
:1003F0004BA55CA569817A818B819C810E948716BF
:100400009B01AC01C701B6010E9429156B017C015B
:10041000A301920169897A898B899C890E94871638
:100420009B01AC01C701B6010E9428156B017C013C
:10043000A30192016D897E898F89988D0E9487160C
:100440009B01AC01C701B6010E9429154B015C015B
:100450002D853E854F855889CA01B9010E9429150D
:100460006B017C019B01AC016D817E818F81988540
:100470000E9487169B01AC01C501B4010E9428159A
:100480004B015C01A3019201698D7A8D8B8D9C8D4E
:100490000E9487169B01AC01C501B4010E9428157A
:1004A0004B015C012DA53EA54FA558A969817A8114
:1004B0008B819C810E9487166D877E878F87988BA2
:1004C00029853A854B855C85C301B2010E94871658
:1004D0009B01AC016D857E858F8598890E942915C9
:1004E0006D877E878F87988B2D813E814F815885C0
:1004F00069897A898B899C890E9487169B01AC0146
:100500006D857E858F8598890E942915698B7A8BE8
:100510008B8B9C8B2DA13EA14FA158A569817A811F
:100520008B819C810E9487169B01AC0169897A8925
:100530008B899C890E94281569837A838B839C838D
:100540002D813E814F8158856D8D7E8D8F8D98A137
:100550000E9487169B01AC0169817A818B819C8105
:100560000E94281569837A838B839C83A701960157
:10057000C301B2010E9487169B01AC0169817A8197
:100580008B819C810E9429156B017C012D813E810C
:100590004F815885698D7A8D8B8D9C8D0E94871631
:1005A0009B01AC01C701B6010E9428156B017C01BB
:1005B0002D813E814F8158856D897E898F89988DE7
:1005C0000E9487169B01AC01C701B6010E94291544
:1005D00029A93AA94BA95CA9D1012D933D934D932B
:1005E0005C931397F10184829582A682B782189654
:1005F0006D937D938D939C931B97E4960FB6F8941F
:10060000DEBF0FBECDBFDF91CF911F910F91FF9045
:10061000EF90DF90CF90BF90AF909F908F907F90A2
:100620006F905F904F903F902F9008958F929F9280
:10063000AF92BF92EF92FF920F931F93CF93DF93EE
:100640008C01EB017A01FC016081718182819381CF
:10065000288139814A815B810E9487164B015C01A8
:10066000F80164817581868197812C813D814E815D
:100670005F810E9487169B01AC01C501B4010E94F5
:1006800028154B015C01F801608571858285938591
:10069000288539854A855B850E9487169B01AC01B8
:1006A000C501B4010E9428154B015C01F801648565
:1006B0007585868597852C853D854E855F850E944D
:1006C00087169B01AC01C501B4010E942815F701F2
:1006D0006083718382839383F8016481758186814D
:1006E0009781288139814A815B810E9487164B015D
:1006F0005C01F80160817181828193812C813D814F
:100700004E815F810E9487169B01AC01C501B40137
:100710000E9429154B015C01F80160857185828575
:1007200093852C853D854E855F850E9487169B01AC
:10073000AC01C501B4010E9429154B015C01F8010F
:100740006485758586859785288539854A855B8585
:100750000E9487169B01AC01C501B4010E942815B7
:10076000F7016483758386839783F80160817181C3
:1007700082819381288539854A855B850E94871609
:100780004B015C01F80164817581868197812C851C
:100790003D854E855F850E9487169B01AC01C50192
:1007A000B4010E9428154B015C01F8016085718538
:1007B00082859385288139814A815B810E948716D1
:1007C0009B01AC01C501B4010E9429154B015C01DC
:1007D000F80164857585868597852C813D814E81DC
:1007E0005F810E9487169B01AC01C501B4010E9484
:1007F0002915F7016087718782879387F8016081E7
:100800007181828193812C853D854E855F850E9413
:1008100087164B015C01F80164817581868197819F
:10082000288539854A855B850E9487169B01AC0126
:10083000C501B4010E9429154B015C01F8016085D6
:100840007185828593852C813D814E815F810E94D7
:1008500087169B01AC01C501B4010E9428154B010C
:100860005C01F801648575858685978528813981C5
:100870004A815B810E9487169B01AC01C501B401CE
:100880000E942915F7016487758786879787DF910E
:10089000CF911F910F91FF90EF90BF90AF909F90DD
:1008A0008F9008952F923F924F925F926F927F9216
:1008B0008F929F92AF92BF92CF92DF92EF92FF9270
:1008C0000F931F93CF93DF93CDB7DEB7E0970FB6AB
:1008D000F894DEBF0FBECDBF1C012A013B010DA75E
:1008E0001EA72FA738AB9A01AB01C301B2010E942A
:1008F00087166DA37EA38FA398A72DA53EA54FA510
:1009000058A9CA01B9010E9487169B01AC016DA1CB
:100910007EA18FA198A50E9429156DA37EA38FA308
:1009200098A7A7019601C701B6010E9487169B01EF
:10093000AC016DA17EA18FA198A50E9429150E94EE
:10094000EE166DA37EA38FA398A7A5019401C50100
:10095000B4010E94871669A77AA78BA79CA729963E
:100960002CAD3DAD4EAD5FAD2997CA01B9010E94D6
:1009700087169B01AC0169A57AA58BA59CA50E9451
:10098000291569A77AA78BA79CA72D962CAD3DADFD
:100990004EAD5FAD2D97CA01B9010E9487169B012C
:1009A000AC0169A57AA58BA59CA50E9429150E947A
:1009B000EE1669A77AA78BA79CA72DA13EA14FA1F0
:1009C00058A5C301B2010E948D152B013C012DA138
:1009D0003EA14FA158A56DA57EA58FA598A90E94FF
:1009E0008D156DA77EA78FA798AB2DA13EA14FA116
:1009F00058A5C701B6010E948D156DA37EA38FA3D4
:100A000098A729A53AA54BA55CA5C501B4010E94EC
:100A10008D1569837A838B839C8329A53AA54BA581
:100A20005CA529966CAD7DAD8EAD9FAD29970E94DA
:100A30008D156D837E838F83988729A53AA54BA555
:100A40005CA52D966CAD7DAD8EAD9FAD2D970E94B2
:100A50008D1569877A878B879C8720E030E0A90114
:100A60006DA17EA18FA198A50E94831618160CF087
:100A700041C020E030E040E85FE36DA17EA18FA19E
:100A800098A50E9429156B017C0120E030E040E030
:100A90005FE30E9487160E94EE16F1016083718366
:100AA00082839383A7019601C701B6010E9429158D
:100AB0000E94EE166B017C019B01AC016DA57EA529
:100AC0008FA598A90E948D15F10164837583868393
:100AD0009783C301B2019058A70196010E948D151A
:100AE000F101608771878287938714861586168641
:100AF00017865CC0CDA4DEA4EFA4F8A8F7FAF094A2
:100B0000F7F8F0942DA13EA14FA158A560E070E048
:100B100080E89FE30E9428154B015C019B01AC011A
:100B20000E9429150E94EE169B01AC01C701B60177
:100B30000E948D15F101608371838283938320E08D
:100B400030E040E05FE3C501B4010E9487160E94D7
:100B5000EE16DC01CB01B058F10184839583A683A6
:100B6000B783108611861286138673016201F7FA25
:100B7000F094F7F8F09420E030E040E85FE36DA1F6
:100B80007EA18FA198A50E9429159B01AC010E940E
:100B900029150E94EE169B01AC01C701B6010E9407
:100BA0008D15F1016487758786879787AE01435F4E
:100BB0005F4FBE016F5F7F4FC10188DA4D845E8455
:100BC0006F847888A3019201C301B2010E94871645
:100BD0006B017C0189889A88AB88BC88A501940147
:100BE000C501B4010E9487169B01AC01C701B60183
:100BF0000E9429156B017C0169817A818B819C811E
:100C000020E030E0A9010E94831618160CF047C0BE
:100C1000C701B6010E94EE169B01AC01C301B201EF
:100C20000E9487169B01AC01C701B6010E942915DD
:100C30002B013C010E94EE166DA37EA38FA398A703
:100C4000A7019601C701B6010E9429150E94EE1660
:100C50009B01AC016DA17EA18FA198A50E948D156D
:100C6000698F7A8F8B8F9C8F1D8E1E8E1F8E18A280
:100C700019A21AA21BA21CA2A3019201C301B201D4
:100C80000E9429150E94EE169B01AC01C501B4011A
:100C90000E948D156DA37EA38FA398A744C0C701A2
:100CA000B6010E94EE169B01AC01C301B2010E9485
:100CB00087169B01AC01C701B6010E9428152B01C4
:100CC0003C01A3019201C301B2010E9429150E94B7
:100CD000EE169B01AC01C501B4010E948D15698F10
:100CE0007A8F8B8F9C8F1D8E1E8E1F8E18A219A23D
:100CF0001AA21BA21CA2C301B2010E94EE164B0154
:100D00005C01A7019601C701B6010E9429150E9446
:100D1000EE169B01AC01C501B4010E948D156DA3B7
:100D20007EA38FA398A7F10180819181A281B381D5
:100D3000B05880839183A283B38384819581A681F7
:100D4000B781B05884839583A683B78380859185C6
:100D5000A285B385B05880879187A287B3878485A1
:100D60009585A685B785B05884879587A687B78768
:100D7000A101BE01675E7F4FC10158DCE0960FB64E
:100D8000F894DEBF0FBECDBFDF91CF911F910F91C1
:100D9000FF90EF90DF90CF90BF90AF909F908F909B
:100DA0007F906F905F904F903F902F9008952F927B
:100DB0003F924F925F926F927F928F929F92AF92EB
:100DC000BF92CF92DF92EF92FF920F931F93CF9338
:100DD000DF93CDB7DEB7C857D1090FB6F894DEBFA1
:100DE0000FBECDBF1C0149835A836B837C83098767
:100DF0001A872B873C87DC018D919D910D90BC91CA
:100E0000A02D8D8F9E8FAF8FB8A3F10144805580A8
:100E10006680778080859185A285B385898B9A8B42
:100E2000AB8BBC8B84859585A685B7858D839E838A
:100E3000AF83B8872D8D3E8D4F8D58A1CA01B90162
:100E40000E9429156DA37EA38FA398A7A3019201E9
:100E5000C301B2010E9429152D966CAF7DAF8EAFF4
:100E60009FAF2D9729893A894B895C89CA01B901BD
:100E70000E94291561966CAF7DAF8EAF9FAF6197D1
:100E80002D813E814F815885CA01B9010E942915E3
:100E9000A9966CAF7DAF8EAF9FAFA9972DA13EA154
:100EA0004FA158A569897A898B899C890E948716E8
:100EB000A1966CAF7DAF8EAF9FAFA19761962CAD21
:100EC0003DAD4EAD5FAD61976D817E818F8198851F
:100ED0000E948716A5966CAF7DAF8EAF9FAFA5978A
:100EE0002D8D3E8D4F8D58A1CA01B9010E948716E4
:100EF00069AF7AAF8BAF9CAFA30192016D8D7E8DF0
:100F00008F8D98A10E94871621966CAF7DAF8EAF12
:100F10009FAF219729893A894B895C896D8D7E8D98
:100F20008F8D98A10E94871629966CAF7DAF8EAFEA
:100F30009FAF29972D813E814F8158856D8D7E8D84
:100F40008F8D98A10E94871665966CAF7DAF8EAF8E
:100F50009FAF6597A3019201C301B2010E9487165A
:100F600069A77AA78BA79CA729893A894B895C89AD
:100F7000C301B2010E948716AD966CAF7DAF8EAFF4
:100F80009FAFAD972D813E814F815885C301B2013E
:100F90000E94871669AB7AAB8BAB9CAB29893A89E7
:100FA0004B895C89CA01B9010E94871669A37AA39B
:100FB0008BA39CA32D813E814F81588569897A89B5
:100FC0008B899C890E948716E1966CAF7DAF8EAFAE
:100FD0009FAFE1972D813E814F815885CA01B901AC
:100FE0000E9487166DAB7EAB8FAB98AF29813A819B
:100FF0004B815C81CA01B9010E948716698F7A8F83
:101000008B8F9C8F29853A854B855C85CA01B901F8
:101010000E9487169B01AC01698D7A8D8B8D9C8D0A
:101020000E942915698F7A8F8B8F9C8FA70196015B
:10103000C701B6010E94871625966CAF7DAF8EAFB3
:101040009FAF259725962CAD3DAD4EAD5FAD259755
:10105000698D7A8D8B8D9C8D0E9429150E94EE16CC
:101060009B01AC0160E070E080E89FE30E948D1579
:10107000698F7A8F8B8F9C8F9B01AC0169817A81FC
:101080008B819C810E94871669966CAF7DAF8EAF75
:101090009FAF6997298D3A8D4B8D5C8D69857A85D7
:1010A0008B859C850E948716E5966CAF7DAF8EAFD1
:1010B0009FAFE597298D3A8D4B8D5C8DC701B601A9
:1010C0000E948716E9966CAF7DAF8EAF9FAFE99710
:1010D000CB56DF4F288139814A815B81C559D04089
:1010E000CA01B9010E9487166B017C01C756DF4F08
:1010F000288139814A815B81C959D040CA01B9012F
:101100000E9487169B01AC01C701B6010E942915F8
:101110006B017C01C356DF4F288139814A815B8195
:10112000CD59D040CA01B9010E94871669837A83DC
:101130008B839C8329813A814B815C81C701B601F5
:101140000E9429150E94EE169B01AC0160E070E040
:1011500080E89FE30E948D156B017C019B01AC012F
:10116000CB56DF4F688179818A819B81C559D040F8
:101170000E948716698F7A8F8B8F9C8FA7019601AB
:10118000C756DF4F688179818A819B81C959D040D8
:101190000E9487166D877E878F87988BA70196019F
:1011A000C356DF4F688179818A819B81CD59D040B8
:1011B0000E9487166D8B7E8B8F8B988F298D3A8D31
:1011C0004B8D5C8D6DA17EA18FA198A50E94871685
:1011D00069877A878B879C872D853E854F855889BF
:1011E0006DA17EA18FA198A50E9487166DA77EA7ED
:1011F0008FA798AB2D893E894F89588D6DA17EA10F
:101200008FA198A50E94871669837A838B839C831C
:10121000298D3A8D4B8D5C8D2D966CAD7DAD8EAD4F
:101220009FAD2D970E94871625966CAF7DAF8EAF30
:101230009FAF2597298D3A8D4B8D5C8D69AD7AAD29
:101240008BAD9CAD0E9487166B017C012DA53EA540
:101250004FA558A96D817E818F8198850E94871640
:101260009B01AC01C701B6010E9428156B017C01EE
:1012700029813A814B815C8169897A898B899C8932
:101280000E9487169B01AC01C701B6010E94291577
:101290006B017C01298D3A8D4B8D5C8D69A57AA5FA
:1012A0008BA59CA50E9487169B01AC01C701B601C6
:1012B0000E9429156B017C012D853E854F8558893B
:1012C0002D966CAD7DAD8EAD9FAD2D970E9487168E
:1012D0009B01AC0169897A898B899C890E94871658
:1012E0009B01AC01C701B6010E9429156B017C016D
:1012F0002D893E894F89588D2D966CAD7DAD8EAD73
:101300009FAD2D970E9487169B01AC016D817E8158
:101310008F8198850E9487169B01AC01C701B60199
:101320000E9429156B017C01298D3A8D4B8D5C8DB6
:1013300069A17AA18BA19CA10E9487169B01AC0197
:10134000C701B6010E9428156B017C01298D3A8DD9
:101350004B8D5C8D6DA97EA98FA998AD0E948716D3
:101360009B01AC01C701B6010E9428156B017C01ED
:1013700029853A854B855C856D817E818F81988535
:101380000E9487166D966CAF7DAF8EAF9FAF6D9745
:101390002D853E854F85588969AD7AAD8BAD9CAD65
:1013A0000E9487169B01AC016D966CAD7DAD8EAD34
:1013B0009FAD6D970E9429156D966CAF7DAF8EAF76
:1013C0009FAF6D9729813A814B815C81C301B20146
:1013D0000E9487169B01AC016D966CAD7DAD8EAD04
:1013E0009FAD6D970E94281569837A838B839C83B8
:1013F00025962CAD3DAD4EAD5FAD259769897A89B7
:101400008B899C890E9487169B01AC0169817A8136
:101410008B819C810E94291569837A838B839C83AD
:101420002D853E854F85588969A57AA58BA59CA5F4
:101430000E9487169B01AC0169817A818B819C8116
:101440000E94281569837A838B839C832D853E8532
:101450004F85588969A17AA18BA19CA10E9487160A
:101460009B01AC0169817A818B819C810E94291545
:1014700069837A838B839C832D893E894F89588D1C
:1014800061966CAD7DAD8EAD9FAD61970E94871664
:101490009B01AC016D817E818F8198850E948716AA
:1014A0009B01AC0169817A818B819C810E94291505
:1014B00069837A838B839C832D853E854F855889EC
:1014C0006DA97EA98FA998AD0E9487169B01AC01DA
:1014D00069817A818B819C810E94281569837A8336
:1014E0008B839C83A7019601C701B6010E948716D2
:1014F0006B017C0129813A814B815C81CA01B90170
:101500000E9487169B01AC01C701B6010E942915F4
:101510000E94EE1669837A838B839C8329853A85A2
:101520004B855C85505869897A898B899C890E9492
:1015300087166B017C012DA53EA54FA558A9C301B7
:10154000B2010E9487169B01AC01C701B6010E943F
:1015500029156B017C012D893E894F89588D69AD14
:101560007AAD8BAD9CAD0E9487169B01AC01C70183
:10157000B6010E9429156B017C0125962CAD3DAD6D
:101580004EAD5FAD25976D817E818F8198850E94DC
:1015900087169B01AC01C701B6010E9429156B019A
:1015A0007C012D893E894F89588D69A57AA58BA527
:1015B0009CA50E9487169B01AC01C701B6010E9441
:1015C00028156B017C012D853E854F8558896196D4
:1015D0006CAD7DAD8EAD9FAD61970E9487169B016E
:1015E000AC016D817E818F8198850E9487169B0159
:1015F000AC01C701B6010E9429156B017C012D8940
:101600003E894F89588D69A17AA18BA19CA10E9426
:1016100087169B01AC01C701B6010E9428156B011A
:101620007C012D893E894F89588D6DA97EA98FA98E
:1016300098AD0E9487169B01AC01C701B6010E94BC
:10164000291569877A878B879C8729813A814B8105
:101650005C81CA01B9010E9429156D966CAF7DAFFE
:101660008EAF9FAF6D9729853A854B855C85CA0102
:10167000B9010E94291525966CAF7DAF8EAF9FAF43
:1016800025976196CCACDDACEEACFFAC6197F7FA78
:10169000F094F7F8F09429A93AA94BA95CA9CA01DA
:1016A000B9010E942915A1962CAD3DAD4EAD5FAD9F
:1016B000A1970E94281569962CAD3DAD4EAD5FAD4A
:1016C00069970E9428156DA77EA78FA798AB9B01ED
:1016D000AC01C701B6010E9487166B017C012196FF
:1016E0002CAD3DAD4EAD5FAD2197CA01B9010E9451
:1016F00029159B01AC01A5966CAD7DAD8EAD9FAD5E
:10170000A5970E942915E5962CAD3DAD4EAD5FAD78
:10171000E5970E94281569AF7AAF8BAF9CAF9B010C
:10172000AC012D966CAD7DAD8EAD9FAD2D970E9419
:1017300087169B01AC01C701B6010E9429156B01F8
:101740007C0129853A854B855C8569897A898B89F5
:101750009C890E948716A1966CAF7DAF8EAF9FAF1C
:10176000A19729A13AA14BA15CA160E070E080E0C3
:101770009FE30E9428152DA93EA94FA958AD0E94AC
:1017800028159B01AC0169817A818B819C810E9423
:1017900087166DAB7EAB8FAB98AF29962CAD3DAD68
:1017A0004EAD5FAD299769A97AA98BA99CA90E9422
:1017B00028159B01AC0169857A858B859C850E94E3
:1017C00087169B01AC016DA97EA98FA998AD0E94D7
:1017D0002915298D3A8D4B8D5C8D0E942815698FB6
:1017E0007A8F8B8F9C8F9B01AC01A1966CAD7DADE8
:1017F0008EAD9FADA1970E9487169B01AC01C701DA
:10180000B6010E9428156B017C0189819A81AB8108
:10181000BC81B0588DAB9EABAFABB8AF9C01AD01F6
:101820006D817E818F8198850E94871669966CAF45
:101830007DAF8EAF9FAF699729853A854B855C85D3
:10184000C301B2010E948716A5966CAF7DAF8EAF23
:101850009FAFA5979B01AC0169966CAD7DAD8EAD38
:101860009FAD69970E94291569966CAF7DAF8EAFC9
:101870009FAF699765962CAD3DAD4EAD5FAD659759
:10188000AD966CAD7DAD8EAD9FADAD970E94281528
:101890009B01AC0169817A818B819C810E948716B2
:1018A00065966CAF7DAF8EAF9FAF6597E1962CAD1F
:1018B0003DAD4EAD5FADE19721966CAD7DAD8EAD8A
:1018C0009FAD21970E9429159B01AC0169857A85FE
:1018D0008B859C850E9487169B01AC0165966CAD3B
:1018E0007DAD8EAD9FAD65970E9429152D853E85F6
:1018F0004F8558890E9428156D877E878F87988B22
:101900009B01AC0169966CAD7DAD8EAD9FAD6997C5
:101910000E9487169B01AC01C701B6010E942915E0
:101920006B017C0129813A814B815C8169897A89CB
:101930008B899C890E94871621966CAF7DAF8EAFF4
:101940009FAF219729A93AA94BA95CA929966CAD0B
:101950007DAD8EAD9FAD29970E9429159B01AC01ED
:1019600069817A818B819C810E94871669AB7AABF1
:101970008BAB9CAB29A53AA54BA55CA560E070E0BC
:1019800080E09FE30E94281529A13AA14BA15CA108
:101990000E9428159B01AC0169857A858B859C8501
:1019A0000E9487169B01AC0169A97AA98BA99CA901
:1019B0000E9429152D893E894F89588D0E9428152E
:1019C0006D8B7E8B8F8B988F9B01AC0121966CADBC
:1019D0007DAD8EAD9FAD21970E9487169B01AC0116
:1019E000C701B6010E94291569AB7AAB8BAB9CABE2
:1019F0002DA53EA54FA558A9A9966CAD7DAD8EAD80
:101A00009FADA9970E9487166B017C0129AD3AAD65
:101A10004BAD5CAD6DA17EA18FA198A50E948716EC
:101A20009B01AC01C701B6010E94291529966CAF34
:101A30007DAF8EAF9FAF299720E030E040E850E4C3
:101A4000C301B2010E94871665966CAF7DAF8EAF61
:101A50009FAF659729A53AA54BA55CA5CA01B90119
:101A6000F8D79B01AC0160E070E080E89FE3F0D71D
:101A70006B017C0129A13AA14BA15CA1CA01B9016A
:101A8000E8D79B01AC01C701B601E2D7E9962CADBE
:101A90003DAD4EAD5FADE997DBD76B017C019B019E
:101AA000AC0165966CAD7DAD8EAD9FAD65970E9426
:101AB00087169B01AC0129966CAD7DAD8EAD9FADB7
:101AC0002997C6D769A77AA78BA79CA729853A85A6
:101AD0004B855C856D817E818F8198850E948716FC
:101AE00069A37AA38BA39CA39B01AC01698D7A8D1A
:101AF0008B8D9C8D0E9487169B01AC0169A57AA5F0
:101B00008BA59CA5A6D729966CAF7DAF8EAF9FAF56
:101B1000299729853A854B855C856D8D7E8D8F8DC6
:101B200098A10E94871669A77AA78BA79CA79B01FB
:101B3000AC0121966CAD7DAD8EAD9FAD219789D75F
:101B40009B01AC016D857E858F8598890E948716E3
:101B50009B01AC0129966CAD7DAD8EAD9FAD2997F3
:101B600078D769877A878B879C8729813A814B81CF
:101B70005C816D817E818F8198850E948716219678
:101B80006CAF7DAF8EAF9FAF219725962CAD3DAD4D
:101B90004EAD5FAD2597C301B2010E9487169B0130
:101BA000AC0121966CAD7DAD8EAD9FAD219750D728
:101BB0009B01AC016D897E898F89988D0E94871663
:101BC0009B01AC0169857A858B859C8542D76987A5
:101BD0007A878B879C872DA13EA14FA158A550588D
:101BE0006DA57EA58FA598A90E9487166DA37EA3DB
:101BF0008FA398A729AD3AAD4BAD5CADA9966CAD5E
:101C00007DAD8EAD9FADA9970E9487169B01AC015B
:101C10006DA17EA18FA198A51CD76DA37EA38FA3D4
:101C200098A720E030E040E850E469897A898B8900
:101C30009C890E9487169B01AC01C701B6010E94D6
:101C400087169B01AC016DA17EA18FA198A500D73D
:101C50006DA37EA38FA398A76D96CCACDDACEEAC44
:101C6000FFAC6D97F7FAF094F7F8F094A70196019E
:101C700069897A898B899C890E94871629A53AA54A
:101C80004BA55CA5E5D69B01AC01698D7A8D8B8D4A
:101C90009C8D0E9487169B01AC016DA17EA18FA136
:101CA00098A5D7D669A77AA78BA79CA729813A813F
:101CB0004B815C81C301B2010E9487166DA37EA394
:101CC0008FA398A79B01AC0169A17AA18BA19CA1CC
:101CD000C0D69B01AC016D857E858F8598890E9459
:101CE00087169B01AC0169A57AA58BA59CA5B1D6E9
:101CF00069A37AA38BA39CA329813A814B815C8140
:101D00006D8D7E8D8F8D98A10E94871669837A8351
:101D10008B839C8325962CAD3DAD4EAD5FAD259755
:101D200069897A898B899C89F2D79B01AC01698189
:101D30007A818B819C818CD69B01AC016D897E89D7
:101D40008F89988DE4D79B01AC0169A17AA18BA101
:101D50009CA17FD669837A838B839C832DA53EA526
:101D60004FA558A92D966CAD7DAD8EAD9FAD2D972D
:101D7000CED769A37AA38BA39CA329AD3AAD4BAD73
:101D80005CAD61966CAD7DAD8EAD9FAD6197BFD7FB
:101D90009B01AC0169A17AA18BA19CA15AD669A330
:101DA0007AA38BA39CA3A70196016D817E818F816D
:101DB0009885ADD79B01AC01A5966CAD7DAD8EAD80
:101DC0009FADA59746D69B01AC01698D7A8D8B8D11
:101DD0009C8D9DD79B01AC0169A17AA18BA19CA18F
:101DE00038D66B017C012DA93EA94FA958AD6D8D48
:101DF0007E8D8F8D98A18BD79B01AC01A1966CAD88
:101E00007DAD8EAD9FADA19724D69B01AC016D85B4
:101E10007E858F8598897BD79B01AC01C701B60170
:101E200018D66B017C012DA13EA14FA158A56D894B
:101E30007E898F89988D6BD79B01AC01C701B60154
:101E400008D66D877E878F87988B29A93AA94BA9D9
:101E50005CA9CA01B9015BD76B017C0129853A8570
:101E60004B855C85CA01B90152D79B01AC01C70102
:101E7000B601EFD56B017C0129813A814B815C81F0
:101E8000CA01B90144D79B01AC01C701B601E1D534
:101E90006B017C012D853E854F855889CA01B901AA
:101EA00036D79B01AC01C701B601D3D597D79B01AB
:101EB000AC0160E070E080E89FE32FD66B017C010D
:101EC0009B01AC0169A97AA98BA99CA920D76D8B2C
:101ED0007E8B8F8B988FA701960169857A858B857C
:101EE0009C8515D769877A878B879C87A701960180
:101EF00069817A818B819C810AD769837A838B83FC
:101F00009C83A70196016D857E858F859889FFD674
:101F10006D877E878F87988BC301B2019058A5018A
:101F20009401F5D66B017C01C357DF4F28813981BD
:101F30004A815B81CD58D04069897A898B899C8997
:101F4000E6D69B01AC01C701B60182D56B017C01CD
:101F5000CF56DF4F288139814A815B81C159D040FA
:101F60006D817E818F819885D2D69B01AC01C7019E
:101F7000B6016ED520E030E040E05FE3C8D66B01EB
:101F80007C012DEC3CEC4CEC5DE36D897E898F8906
:101F9000988DBDD69B01AC01C701B60159D56D8B9B
:101FA0007E8B8F8B988FA50194016D8D7E8D8F8D8B
:101FB00098A1ADD66B017C01CF56DF4F28813981C6
:101FC0004A815B81C159D04069897A898B899C8912
:101FD0009ED69B01AC01C701B6013BD56B017C01CC
:101FE000C357DF4F288139814A815B81CD58D0406A
:101FF0006D817E818F8198858AD69B01AC01C70156
:10200000B60126D520E030E040E05FE380D66B01EA
:102010007C012DEC3CEC4CEC5DE369857A858B858D
:102020009C8575D69B01AC01C701B60111D56987A6
:102030007A878B879C87C357DF4F288139814A81F4
:102040005B81CD58D0406D8D7E8D8F8D98A15FD6F0
:102050006B017C01CF56DF4F288139814A815B813A
:10206000C159D040C301B20152D69B01AC01C70196
:10207000B601EED46B017C01A50194016D817E81D6
:102080008F81988544D69B01AC01C701B601E1D48C
:1020900020E030E040E05FE33AD66B017C012DECBC
:1020A0003CEC4CEC5DE369817A818B819C812FD67D
:1020B0009B01AC01C701B601CBD469837A838B83C2
:1020C0009C83CF56DF4F288139814A815B81C1597A
:1020D000D0406D8D7E8D8F8D98A119D66B017C01BE
:1020E000C357DF4F288139814A815B81CD58D04069
:1020F000C301B2010CD69B01AC01C701B601A9D442
:102100006B017C01A501940169897A898B899C897D
:10211000FED59B01AC01C701B6019AD420E030E0A6
:1021200040E05FE3F4D56B017C012DEC3CEC4CEC22
:102130005DE36D857E858F859889E9D59B01AC012E
:10214000C701B60185D46B017C012CE13BEE42EE68
:102150005CE36D897E898F89988DD9D59B01AC010F
:102160006D8D7E8D8F8D98A174D46D8F7E8F8F8FA6
:1021700098A32CE13BEE42EE5CE369857A858B8582
:102180009C85C5D59B01AC01C301B20162D42B0172
:102190003C012CE13BEE42EE5CE369817A818B816C
:1021A0009C81B5D59B01AC0169897A898B899C8911
:1021B00050D44B015C012CE13BEE42EE5CE3C701E5
:1021C000B601A5D59B01AC016D817E818F8198857B
:1021D00040D46D837E838F8398872D8D3E8D4F8D68
:1021E00058A1CA01B90193D56B017C01A3019201E9
:1021F000C301B2018CD59B01AC01C701B60129D442
:102200006B017C01A5019401C501B40180D59B013E
:10221000AC01C701B6011DD46B017C012D813E814B
:102220004F815885CA01B90172D59B01AC01C70124
:10223000B6010FD4D3D59B01AC0160E070E080E81B
:102240009FE36BD46B017C019B01AC016D8D7E8D96
:102250008F8D98A15CD5D1016D937D938D939C93C7
:102260001397A7019601C301B20151D5F10164830F
:10227000758386839783A7019601C501B40147D56D
:10228000D10118966D937D938D939C931B97A70115
:1022900096016D817E818F81988539D5F1016487A2
:1022A000758786879787C858DF4F0FB6F894DEBFCB
:1022B0000FBECDBFDF91CF911F910F91FF90EF9097
:1022C000DF90CF90BF90AF909F908F907F906F9056
:1022D0005F904F903F902F9008951F920F920FB6EE
:1022E0000F9211248F9381E0809306018F910F90BC
:1022F0000FBE0F901F9018951F920F920FB60F925E
:1023000011240BB60F922F933F934F935F936F93CC
:102310007F938F939F93AF93BF93EF93FF936AE065
:1023200087E091E0EFD2FF91EF91BF91AF919F9144
:102330008F917F916F915F914F913F912F910F906E
:102340000BBE0F900FBE0F901F9018951F920F920B
:102350000FB60F9211240BB60F922F933F934F930A
:102360005F936F937F938F939F93AF93BF93EF93FD
:10237000FF936AE087E891E016D3FF91EF91BF9158
:10238000AF919F918F917F916F915F914F913F910D
:102390002F910F900BBE0F900FBE0F901F901895AE
:1023A0001F920F920FB60F9211248F939F93AF93AA
:1023B000BF938091020190910301A0910401B0911B
:1023C00005010196A11DB11D8093020190930301A7
:1023D000A0930401B0930501BF91AF919F918F919C
:1023E0000F900FBE0F901F901895CF93DF93CDB72E
:1023F000DEB7E2970FB6F894DEBF0FBECDBF80E028
:1024000090E0A0E8BFE38B8B9C8BAD8BBE8B1F8ACB
:10241000188E198E1A8E1B8E1C8E1D8E1E8E1F8E70
:1024200018A219A21AA260E071EE80E090E07BD2BF
:10243000E6D254D1F3D17894BE01695F7F4FCE01CB
:10244000019662D189819A81BFD280E091E09FD2CA
:102450008B819C81B9D280E091E099D28D819E815F
:10246000B3D28AE086D2CE010D96F4D16B817C8105
:10247000072E000C880B990BBAD32B013C01698104
:102480007A81072E000C880B990BB1D36BA37CA328
:102490008DA39EA36D817E81719561957109072E33
:1024A000000C880B990BA3D36B017C016D857E8595
:1024B000072E000C880B990B9AD34B015C016F859A
:1024C0007889072E000C880B990B91D3262E372E76
:1024D000182F092F69897A89072E000C880B990B10
:1024E00086D39F938F937F936F930F931F933F9206
:1024F0002F920BA11CA12DA13EA1B301A201CE01DF
:1025000043960E9452040FB6F894DEBF0FBECDBFB3
:10251000BE01695F7F4FCE010196F6D0CE010D96C8
:1025200099D16B817C81072E000C880B990B5FD3AE
:102530006BA37CA38DA39EA369817A81072E000CD7
:10254000880B990B54D36FA378A789A79AA76D819D
:102550007E81719561957109072E000C880B990B8E
:1025600046D36B017C0169857A85072E000C880BA8
:10257000990B3DD320E030E04AEF5BE3C8D325E37D
:102580003AEF4EE85CE3C3D34B015C016F81788581
:10259000072E000C880B990B2AD320E030E04AEF7D
:1025A0005BE3B5D325E33AEF4EE85CE3B0D3762E98
:1025B000672E582E492E6B857C8571956195710922
:1025C000072E000C880B990B12D320E030E04AEF65
:1025D0005BE39DD325E33AEF4EE85CE398D36BA72A
:1025E0007CA78DA79EA76D857E85072E000C880B86
:1025F000990BFDD26FA778AB89AB9AAB6F857889C1
:10260000072E000C880B990BF2D2262E372E082F9E
:10261000192F69897A89072E000C880B990BE7D24C
:102620009F938F937F936F931F930F933F922F925C
:102630009AA99F9389A98F9398A99F938FA58F9308
:102640009EA59F938DA58F939CA59F938BA58F93FC
:102650004F925F926F927F920FA118A529A53AA57C
:102660004BA15CA16DA17EA1CE0143960E94D7062D
:1026700089819A81A9D180E091E089D18B819C8167
:10268000A3D180E091E083D18D819E819DD18AE0AC
:1026900070D10FB6F894DEBF0FBECDBF39CFCF9348
:1026A000DF93D82FC62FB4D180EDBED18D2FBCD1F2
:1026B0008C2FBAD1B5D1DF91CF910895CF93C82F88
:1026C000A7D180EDB1D18C2FAFD1A2D181EDACD10A
:1026D000B5D1C82FA5D18C2FCF91089560E08BE69E
:1026E000DEDF2FEF81EE94E0215080409040E1F753
:1026F00000C0000060E08CE1D2DF60E08BE1CFDF62
:1027000062E087E3CCCF0895CF92DF92EF92FF9201
:102710000F931F93CF93DF93CDB7DEB72E970FB6EE
:10272000F894DEBF0FBECDBF6C017B0100E010E06E
:102730000CC08BE3800FC2DFE1E0F0E0EC0FFD1F87
:10274000E00FF11F80830F5F1F4F0E3011058CF3D8
:10275000898190E0982F88272A81822BF601918326
:1027600080838B8190E0982F88272C81822B938304
:1027700082838D8190E0982F88272E81822B9583EC
:102780008483898590E0982F88272A85AC01422B85
:102790002B8530E0322F22278C85282B8D8590E0E9
:1027A000982F88276E85862B44505109F701518355
:1027B0004083205431093383228383979583848314
:1027C0002E960FB6F894DEBF0FBECDBFDF91CF912E
:1027D0001F910F91FF90EF90DF90CF900895CF93CE
:1027E000DF93D82FC62F14D188E11ED18D2F1CD195
:1027F0008C2F1AD115D1DF91CF910895CF93C82F87
:1028000007D188E111D18C2F0FD102D189E10CD1F0
:1028100015D1C82F05D18C2FCF91089560E08AE0A3
:10282000DEDF8FE39CE90197F1F700C000006FE065
:102830008AE0D5DF8FE39CE90197F1F700C0000043
:1028400060E08AE0CCDF8FE39CE90197F1F700C0FC
:1028500000000895EF92FF920F931F93CF93DF93A1
:1028600000D000D000D0CDB7DEB77C0161E18AE0B6
:10287000B6DF8FE39CE90197F1F700C0000000E0AC
:1028800010E00CC083E0800FB9DFE1E0F0E0EC0F76
:10289000FD1FE00FF11F80830F5F1F4F06301105F2
:1028A0008CF38A8190E0982F88272981AC01422BF4
:1028B0002C8130E0322F22278B81282B8E8190E0D3
:1028C000982F88276D81862B42535109F701518338
:1028D0004083245631093383228384529F4F95834A
:1028E000848326960FB6F894DEBF0FBECDBFDF916E
:1028F000CF911F910F91FF90EF9008955F9BFECFB6
:102900008CB108951F93CF93DF93EC01162FF6DF60
:10291000811302C0188203C088832196F8CFDF910B
:10292000CF911F910895DC01CB01880F991FAA1F39
:10293000BB1F880F991FAA1FBB1F9C01AD01220F4F
:10294000331F441F551F220F331F441F551F60E0C4
:1029500074E284EF90E0B9D22150310930939800AD
:102960002093990088E980939A0086E080939D00E7
:10297000089590919B0095FFFCCF80939C00089553
:1029800080919B008823E4F780919C000895CF9369
:10299000DF93EC0102C02196ECDF88818111FBCF2F
:1029A000DF91CF9108951F93CF93DF93EC01162F02
:1029B000E7DF811302C0188203C088832196F8CF15
:1029C000DF91CF911F910895CF93DF93CDB7DEB7FD
:1029D00027970FB6F894DEBF0FBECDBF4AE0BE0109
:1029E0006F5F7F4F94D2CE010196D1DF27960FB64D
:1029F000F894DEBF0FBECDBFDF91CF910895109246
:102A0000710086E48093700084E0809374000895E0
:102A100084EA80937400809174008823E4F7089519
:102A200084E98093740008958093730084E8809310
:102A30007400809174008823E4F7089584E88093FB
:102A40007400809174008823E4F7809173000895E6
:102A50005058BB27AA270ED01CC10DD130F012D17F
:102A600020F031F49F3F11F41EF402C10EF4E09502
:102A7000E7FBF8C0E92F1ED180F3BA17620773078E
:102A80008407950718F071F49EF536C10EF4E095B1
:102A90000B2EBA2FA02D0B01B90190010C01CA0118
:102AA000A0011124FF27591B99F0593F50F4503EC3
:102AB00068F11A16F040A22F232F342F4427585FB5
:102AC000F3CF469537952795A795F0405395C9F7CD
:102AD0007EF41F16BA0B620B730B840BBAF0915085
:102AE000A1F0FF0FBB1F661F771F881FC2F70EC024
:102AF000BA0F621F731F841F48F4879577956795F7
:102B0000B795F7959E3F08F0B3CF9395880F08F0DF
:102B10009927EE0F9795879508950CD0BAC0B2D03B
:102B200040F0A9D030F021F45F3F19F09BC0511163
:102B3000E4C09EC0BFD098F39923C9F35523B1F3E5
:102B4000951B550BBB27AA2762177307840738F01C
:102B50009F5F5F4F220F331F441FAA1FA9F333D07B
:102B60000E2E3AF0E0E830D091505040E695001C2F
:102B7000CAF729D0FE2F27D0660F771F881FBB1FEB
:102B8000261737074807AB07B0E809F0BB0B802DC5
:102B9000BF01FF2793585F4F2AF09E3F510568F011
:102BA00061C0ABC05F3FECF3983EDCF38695779550
:102BB0006795B795F7959F5FC9F7880F911D969513
:102BC000879597F90895E1E0660F771F881FBB1F6F
:102BD000621773078407BA0720F0621B730B840B1C
:102BE000BA0BEE1F88F7E0950895E89409C097FBAB
:102BF0003EF490958095709561957F4F8F4F9F4FD4
:102C00009923A9F0F92F96E9BB279395F695879517
:102C100077956795B795F111F8CFFAF4BB0F11F4DA
:102C200060FF1BC06F5F7F4F8F4F9F4F16C0882381
:102C300011F096E911C0772321F09EE8872F762FB7
:102C400005C0662371F096E8862F70E060E02AF0F8
:102C50009A95660F771F881FDAF7880F96958795E4
:102C600097F9089597F99F6780E870E060E008950C
:102C70009FEF80EC089500240A9416161706180694
:102C80000906089500240A94121613061406050670
:102C90000895092E0394000C11F4882352F0BB0F01
:102CA00040F4BF2B11F460FF04C06F5F7F4F8F4F64
:102CB0009F4F089557FD9058440F551F59F05F3F9F
:102CC00071F04795880F97FB991F61F09F3F79F04E
:102CD00087950895121613061406551FF2CF4695D0
:102CE000F1DF08C0161617061806991FF1CF869552
:102CF0007105610508940895E894BB276627772736
:102D0000CB0197F90895A8D008F48FEF08950BD060
:102D1000C0CFB1DF28F0B6DF18F0952309F0A2CFBD
:102D2000A7CF1124EACFC6DFA0F3959FD1F3950F6B
:102D300050E0551F629FF001729FBB27F00DB11D3F
:102D4000639FAA27F00DB11DAA1F649F6627B00DCF
:102D5000A11D661F829F2227B00DA11D621F739FB8
:102D6000B00DA11D621F839FA00D611D221F749FC6
:102D70003327A00D611D231F849F600D211D822F0D
:102D8000762F6A2F11249F5750408AF0E1F0882354
:102D90004AF0EE0FFF1FBB1F661F771F881F915061
:102DA0005040A9F79E3F510570F05CCFA6CF5F3F22
:102DB000ECF3983EDCF3869577956795B795F79594
:102DC000E7959F5FC1F7FE2B880F911D969587951C
:102DD00097F9089511F40EF44BCF62C073DFD0F36E
:102DE0009923D9F3CEF39F57550B87FF67D0002463
:102DF000A0E640EA900180585695979528F4805CAB
:102E0000660F771F881F20F026173707480730F412
:102E1000621B730B840B202931294A2BA69517942A
:102E20000794202531254A2758F7660F771F881FFA
:102E300020F026173707480730F4620B730B840B1A
:102E4000200D311D411DA09581F7B901842F9158A6
:102E5000880F969587950895990F0008550FAA0B2E
:102E6000E0E8FEEF16161706E807F907C0F012169D
:102E70001306E407F50798F0621B730B840B950BA0
:102E800039F40A2661F0232B242B252B21F40895F5
:102E90000A2609F4A140A6958FEF811D811D089592
:102EA0009F3F31F0915020F4879577956795B795BE
:102EB000880F911D9695879597F9089591505040E8
:102EC000660F771F881FD2F70895A1E21A2EAA1B5A
:102ED000BB1BFD010DC0AA1FBB1FEE1FFF1FA217CA
:102EE000B307E407F50720F0A21BB30BE40BF50BC7
:102EF000661F771F881F991F1A9469F76095709550
:102F0000809590959B01AC01BD01CF010895BB2731
:102F10004A3031F4992322F4BDE2909581959F4F78
:102F200001C0BB27FB015527AA27880F991FAA1F9D
:102F3000A41710F0A41B83955051B9F7A05DAA33D4
:102F400008F0A95DA193009779F7B111B19311929F
:102F5000CB0100C0DC01FC01672F71917723E1F701
:102F6000329704C07C916D9370836291AE17BF0756
:082F7000C8F30895F894FFCFA7
:022F78002C002B
:00000001FF
