S01D000050726F6A6563745F476C6964696E675F43687574652E73726563BB
S113000045C0000060C000005EC000005CC000008D
S11300105AC0000058C0000056C0000054C0000080
S113002052C0000050C000004EC000004CC0000090
S11300304AC0000048C0000046C0000045C000009F
S113004042C0000040C000004EC000003CC00000A0
S11300503AC0000038C0000036C0000034C00000C0
S113006032C0000030C000002EC000002CC00000D0
S11300702AC0000028C0000060C0000024C00000A6
S113008022C0000020C000001EC0000011241FBEBA
S1130090CFEFD0E1DEBFCDBF11E0A0E0B1E0E0E200
S11300A0F3E000E00BBF02C007900D92A030B1074F
S11300B0D9F722E0A0E0B1E001C01D92A130B2075F
S11300C0E1F765D02BC19CCF1F920F920FB60F9210
S11300D011248F9381E0809300018F910F900FBEC4
S11300E00F901F9018951F920F920FB60F92112424
S11300F00BB60F922F933F934F935F936F937F931E
S11301008F939F93AF93BF93EF93FF936AE081E044
S113011091E08ED0FF91EF91BF91AF919F918F911C
S11301207F916F915F914F913F912F910F900BBEF3
S11301300F900FBE0F901F9018951F920F920FB63D
S11301400F9211240BB60F922F933F934F935F930B
S11301506F937F938F939F93AF93BF93EF93FF938B
S11301606AE081E891E07CD0FF91EF91BF91AF917B
S11301709F918F917F916F915F914F913F912F91BB
S11301800F900BBE0F900FBE0F901F90189526D0A6
S113019078948AEF90E02ED02FEF83ED90E32150F6
S11301A080409040E1F700C0000080E090E022D061
S11301B02FEF83ED90E3215080409040E1F700C0A1
S11301C0000086E09FEF16D02FEF83ED90E32150DF
S11301D080409040E1F700C00000DBCF82E88FBD93
S11301E08BE18EBD8FE493EC97BD86BD87B38062AF
S11301F087BB08959C0128513C4F283E83E0380773
S113020010F428EE33E0213D87E0380710F020EDAC
S113021037E0AFE4B3EC73D020E23EE440E050E0DA
S113022052D03BBD2ABD08955F9BFECF8CB108958B
S11302301F93CF93DF93EC01162FF6DF811302C0D7
S1130240188203C088832196F8CFDF91CF911F9144
S1130250089580919B008823E4F780919C00089581
S11302601F93CF93DF93EC01162FF3DF811302C0AA
S1130270188203C088832196F8CFDF91CF911F9114
S11302800895A1E21A2EAA1BBB1BFD010DC0AA1FD3
S1130290BB1FEE1FFF1FA217B307E407F50720F0EB
S11302A0A21BB30BE40BF50B661F771F881F991F66
S11302B01A9469F760957095809590959B01AC01AF
S11302C0BD01CF010895052E97FB16F400940FD0BD
S11302D057FD05D0D6DF07FC02D046F408C0509580
S11302E04095309521953F4F4F4F5F4F089590951E
S11302F08095709561957F4F8F4F9F4F0895A29F72
S1130300B001B39FC001A39F700D811D1124911DE5
S1130310B29F700D811D1124911D0895F894FFCF93
S9030000FC
